:020000040800F2
:1000000060190020D5020008DD020008DF020008A8
:10001000E1020008E3020008E50200080000000019
:10002000000000000000000000000000E7020008DF
:10003000E902000800000000EB020008ED020008E1
:10004000EF020008EF020008EF020008EF020008CC
:10005000EF020008EF020008EF020008EF020008BC
:10006000EF020008EF020008EF020008EF020008AC
:10007000EF020008EF020008EF020008EF0200089C
:10008000EF020008EF020008EF020008EF0200088C
:10009000EF020008EF020008EF020008EF0200087C
:1000A000EF020008EF020008EF020008EF0200086C
:1000B000EF0200088D1C0008EF020008EF020008A4
:1000C000EF020008EF020008EF020008EF0200084C
:1000D000EF020008EF020008EF020008EF0200083C
:1000E000DD1A0008EF020008EF020008EF02000826
:1000F000EF020008EF02000800000000000000000E
:100100000000000000000000EF020008EF020008FD
:100110000000000000000000EF020008EF020008ED
:10012000EF020008EF020008351A0008EF0200088D
:10013000EF020008EF020008EF020008EF020008DB
:10014000EF020008000000000000000000000000B6
:10015000000000000000000000000000000000009F
:100160000000000000000000EF020008EF0200089D
:10017000EF02000800000000EF020008000000008D
:1001800000000000EF02000800F002F800F092F812
:100190000AA090E8000C82448344AAF10107DA45E2
:1001A00001D100F087F8AFF2090EBAE80F0013F0A2
:1001B000010F18BFFB1A43F0010318474861000004
:1001C00068610000103A24BF78C878C1FAD8520795
:1001D00024BF30C830C144BF04680C6070470000C1
:1001E0000023002400250026103A28BF78C1FBD840
:1001F000520728BF30C148BF0B6070476E2900F01E
:10020000E981702900F03383662904F08D82652925
:1002100004F08A82672904F087826129AFF30080A5
:1002200003681B0A28BF41F08001692900F096810C
:10023000642900F09381752900F090816F2900F006
:10024000C082782900F0FF82E92900F05B82E4296E
:1002500000F05882F52900F05582EF2900F0BD82A8
:10026000F82900F0FE820368DB0928BF41F0800115
:10027000632900F0AC86732900F0B186E32900F011
:10028000BC86F32900F0C186002070471FB504F03A
:1002900046FA00F011FF04000020002104F082F96A
:1002A000401C60600020002104F066F9E0601FBD82
:1002B00010B510BD00F0D2FE1146FFF7E7FF04F0C5
:1002C00039F900F0ABFF03B4FFF7F2FF03BC00F015
:1002D000EFFF00000948804709480047FEE7FEE7B6
:1002E000FEE7FEE7FEE7FEE7FEE7FEE7FEE7FEE7E6
:1002F00004480549054A064B70470000111C0008D8
:10030000890100086013002060190020601500209A
:100310006015002053EA020C00F069802DE9F04BD3
:100320004FF00006002B1FBFB3FA83F503FA05F464
:1003300024FA05F65E4012BF1643B2FA82F502FABD
:1003400005F4C5F120051EBF22FA05FC44EA0C04A1
:10035000203556EA044C4FEA144418BF641C4FF091
:1003600000084FF00009904271EB030C39D30029CB
:1003700019BFB1FA81F701FA07F6B0FA80F700FA6F
:1003800007F6C7F120071EBF20FA07FC46EA0C0655
:100390002037B6FBF4FCA7EB0507103F07F01F0B57
:1003A000CBF120060CFA0BFB2CFA06F644BFB34641
:1003B0000026202FA4BF5E464FF0000B5BEA060C20
:1003C00008BF4FF0010B19EB0B09ABFB027C48EBAC
:1003D0000608C01B06FB02CC0BFB03CC71EB0C0127
:1003E000C1E70B46024641464846BDE8F08B13B5CF
:1003F0004FF000004FF00001AFF30080BDE81C405B
:10040000704700007CB51D4616460C00009001D0D8
:100410002044401E074B7B442A46694601903046E3
:1004200000F0F1F805461CB10020694600F0FEF826
:1004300028467CBD1D0200004FF000020429C0F0D8
:10044000128010F0030C00F0E382CCF1040CBCF13C
:10045000020F18BF00F8012BA8BF20F8022BA1EB58
:100460000C0100F0D5BA5FEAC17C24BF00F8012B73
:1004700000F8012B48BF00F8012B70477047704708
:10048000704710B500F0EAFA006810BD10B50446D8
:1004900000F0E4FA046010BD70B504468569006898
:1004A000C10601D5302600E02026C00707D070BD68
:1004B000D4E9012130469047206A401C20626D1E1D
:1004C000F6D570BD70B5044685690078C00707D1C0
:1004D00070BDD4E9012120209047206A401C206291
:1004E0006D1EF6D570BD09684A0501D540B270474A
:1004F000C905FCD500B2704709684A0501D5C0B2EC
:100500007047C905FCD580B2704770B50C460546EA
:10051000012A05D02878800600D5EA69002302E088
:10052000012305E05B1C934202D2E05C0028F9D174
:10053000A869E618C01AA861286A184428622846E3
:10054000FFF7AAFF04E0D5E9012114F8010B904759
:10055000B442F8D32846FFF7B5FF70BD2DE9F0414E
:100560000646002410687529314616A510D0FFF7FD
:10057000BAFF002802DA404213A507E031688A0773
:1005800001D512A502E0490704D511A5012401E017
:10059000FFF7B2FF00210A2206F1240709E0B0FBB1
:1005A000F2FCB0FBF2F302FB1C003030785418462A
:1005B000491C0028F3D123462A463046BDE8F041C5
:1005C00000F095BA000000002D0000002B00000094
:1005D0002000000011680268006A530501D5087008
:1005E0000AE0D30501D5088006E0130603D5C2173B
:1005F000C1E9000200E008600120704701694A1C5F
:1006000002610878704700B58FB0CDE90131002153
:10061000059105497944CDE903101146684600F07B
:1006200031F90FB000BD0000E5FFFFFF0A6802F8D6
:10063000010B0A607047D1E900239A4202D2531C91
:100640000B601070704700002DE9FF5F15468A4669
:100650000446DFF8AC80F8440027D8E900103E4695
:10066000CDE9001010E03AF816106A4602A800F032
:10067000D0FC411C07D02178890603D5E2693918DE
:1006800091420DD80744761C2078800602D5E06997
:10069000B84205DDAE42E6DB3AF816000028E2D1AA
:1006A000A069C01BA0612046FFF7F6FED8E9001044
:1006B000CDE90010002017E03AF818106A4602A8A9
:1006C00000F0A7FCB0F1FF3F81460BD000250DF1F3
:1006D000080B05E0D4E901211BF8050090476D1CCB
:1006E0004D45F7D308F10100B0428046E4DB206AB3
:1006F000384420622046FFF7E5FEBDE8FF9F00007A
:100700006E5B00002DE9F0418046D21D22F0070209
:100710000025D2E90002F52915A614D0011E72F1B8
:10072000000106DA0023D0EB030063EB020211A6FE
:1007300008E0D8F800108B0701D50FA602E04907A2
:1007400001D50EA601251146002408F1240704E076
:1007500000F088F930323A55641C50EA0102F7D1B2
:100760002B46324621464046BDE8F04100F0BFB975
:10077000000000002D0000002B0000002000000001
:1007800030B4002100F1240408E002F00705D2088B
:10079000303542EA4372DB086554491C52EA0305CE
:1007A000F3D10468002310A2250707D5A40600D4BE
:1007B00021B1C46901230DA2641EC46130BC00F0E4
:1007C00096B910B5044621461068FFF795FE02461B
:1007D0002046BDE810400023D2E7D21D22F00701D9
:1007E000D1E90023CCE70000000000003000000049
:1007F000F0B40D460188090502D5214C7C4402E085
:100800001F4C7C440E34002100F1240608E002F065
:100810000F071209E75D42EA03721B097754491C6E
:1008200052EA0307F3D102780023120704D5702D92
:1008300006D009B1022311342246F0BC00F057B9AA
:1008400001231034F8E770B504460D4621461068C0
:10085000FFF752FE024629462046BDE870400023BD
:10086000C6E7D21D22F00703D3E90023C0E70368DF
:10087000126843F0200303600823C3610023B7E735
:10088000D05900002DE9F05F894604464FF0000A78
:10089000DFF874B1FB44C0F820A02046E168884727
:1008A000002874D0252806D0D4E901219047206A79
:1008B000401C2062F1E700265F462046E168884739
:1008C0002028054607DB312D05D2781910F8200CB9
:1008D00008B10643F1E7B00701D526F00406C4F8D5
:1008E0001CA00027C4F818A02A2D09D0284603F020
:1008F0001AFE38B304EB8708303DC8F8185019E0E9
:1009000059F8041B204604EB87029161E16888478F
:10091000012F054618D1E069002820DA26F02006CC
:100920001DE0D8F8180000EB800005EB40003038DF
:10093000C8F818002046E1688847054603F0F3FD33
:100940000028EED1012F0AD02E2D08D12046E168D3
:1009500088477F1C0546022F46F02006C4DBA069AD
:10096000002803DA404246F00106A061F00701D0FA
:1009700026F010066C2D0BD0682D09D04C2D39D0E7
:100980006A2D35D0742D35D07A2D33D016E038E06D
:10099000E1682F4620468847B842054609D16C2FAA
:1009A00026D04FF48060E16806432046884705461C
:1009B00004E06C2F1AD04FF4807006430DB3A5F1FC
:1009C0004100192802D8203546F400664A462946D7
:1009D000204626604E46FFF711FC80B101280BD05F
:1009E000F61D26F0070000F1080956E74020E4E76D
:1009F0008020D8E70020D6E706F104094DE7284615
:100A000052E7206ABDE8F09F605900004FF00002F5
:100A100000B5134694469646203922BFA0E80C50F4
:100A2000A0E80C50B1F12001BFF4F7AF090728BFCF
:100A3000A0E80C5048BF0CC05DF804EB890028BF4B
:100A400040F8042B08BF704748BF20F8022B11F074
:100A5000804F18BF00F8012B704700000048704716
:100A6000FC12002030B5B0F10A024FEA900E71F18D
:100A700000034EEA817EB0EB0E0061EB91014FEA7C
:100A8000101E4EEA017E10EB0E0041EB11114FEAF1
:100A9000102E4EEA016E10EB0E0041EB11214FEAD1
:100AA000104E4EEA014E10EB0E0041EB1141401882
:100AB00041F100014FEAD00040EA41704FEAD10114
:100AC00010EB80054FEA810444EA907444EB010482
:100AD0006D1944EB0404521BA3414FF0000348BFBF
:100AE0000A3200D530BD401C41F1000130BD2DE976
:100AF000F0470D4699469246044600F124080168E5
:100B0000880604D5E06921F01001216000E0012091
:100B1000A84201DD471B00E00027A1697A1902EB1A
:100B20000900081AA0612078C00602D42046FFF709
:100B3000B3FC002608E0D4E901211AF8060090472A
:100B4000206A401C761C20624E45F4DB2078C006EB
:100B50000AD52046FFF7A0FC06E0D4E901213020A9
:100B60009047206A401C2062381EA7F10107F4DC80
:100B700007E0D4E9012118F805009047206A401CDD
:100B80002062281EA5F10105F3DC2046FFF79AFC40
:100B90002078000602D50220BDE8F0870120FBE79F
:100BA00070472DE9FF4F0C461E464FF0FF378BB0C4
:100BB000D2E90001DDF860800A908A46C1F30A5547
:100BC00005B93D46002108464FF00000BAF1000F7C
:100BD00000F4400005DA00EB80004FF4400101EA28
:100BE00050004FEA9059B9F1010F00DDB9460A985B
:100BF00050EA4A000ED044F61050A5F2FF354543A6
:100C00002F14B8F1000F1ED07542291E1EDDC9F148
:100C100000021CE0B8F1010F4FF0000001D03021BC
:100C200003E0F24305E02154401CB042FBDB3046B8
:100C30000022002121540B99C1F80880C1E900204D
:100C40000FB0BDE8F08FBD1B6D1CDEE74A4600DA31
:100C5000694206A800F074FA06AB93E8070003ABFC
:100C600083E8070050460A9900F029FB8DE8070049
:100C7000A0F500501F3800900398002D09DD42F2C6
:100C80001F014A46084403A90390684600F088FD06
:100C900008E0A0F500504A461F3803A903906846B3
:100CA00000F092FD8DE807000004000C03D04FF027
:100CB000FF30410800E01046B8F1000F03D00022D9
:100CC000009215461EE0751E05D4FFF7CBFE3032AC
:100CD00062556D1EF9D5B3460122084302D00022A9
:100CE0007F1C04E02078302801D100227F1E002ADA
:100CF000099786D01DE0112D07DAFFF7B3FE3032D9
:100D000062556D1C50EA0102F5D1084302D00098EB
:100D1000C8B10EE00021681E05E0235C625C6354EC
:100D20002254401E491C8142F7DBAB46A81B401EE3
:100D30000990002004F80B000B98099AC0F808806D
:100D4000C0E9002B7CE711264FF0000859E72DE998
:100D5000F04F88460446D21D22F0070191B0D1E938
:100D60000001CDE90A0103F0A9FB02460B98C00F70
:100D700001D02D2007E02068810701D52B2002E05B
:100D8000202101EAC000032A099001D0072A05DBCF
:100D900003464146204600F093F90BE12078800697
:100DA00001D5E06900E00620B8F1650F814606D064
:100DB000B8F1660F18D0B8F1670F70D131E000209C
:100DC000B9F1110F009001DB112301E009F10103DA
:100DD0000AAA01A90CA8FFF7E4FEDDE90C700026C1
:100DE00009F10105834647E001204B4600904FF092
:100DF00000470AAA01A90CA8FFF7D3FEDDE90DB050
:100E00000C995D46002610B909F101000D18B9EBE7
:100E1000050003D4C0F1FF3609F10105A5EB090077
:100E20002BE0B9F1010F01DA4FF001090020B9F10F
:100E3000110F0090484601DD112300E003460AAA85
:100E400001A90CA8FFF7ADFEDDE90C704D460026A8
:100E50008346207800070AD4AB4500DA5D4601A836
:100E6000012D04DD411911F8011C302907D04F452F
:100E700002DA17F1040F04DA012082460FE06D1E3A
:100E8000EEE7002F02DCED1B3E4403E0781CA84295
:100E900000DD7D1CB81B00F1010A4FF000472078EF
:100EA000000703D4AA4501DB4FF0FF3A0021B7F158
:100EB000004F0DF143088DF8431024D002202B235E
:100EC000002F01DA7F422D230A21021EA0F101002A
:100ED00000DC5FB197FBF1FC97FBF1F201FB1C7C9E
:100EE00017460CF1300C08F801CDEEE7A8F101002F
:100EF00003702188090501D5452100E06521A0F195
:100F0000010800F8011C09980FA9A1EB0807FF1DB3
:100F100000B10120411901EBEA70A1693844081AB7
:100F2000401EA0612078C00602D42046FFF7B4FA24
:100F3000099828B1D4E901219047206A401C206219
:100F40002078C00622D52046FFF7A6FA1EE0002E24
:100F500004DBB34502DD01A8805D00E03020D4E968
:100F600001219047206A401C2062761CAAF10100F2
:100F70005FEA000A0AD100F09FF8C0680168405C8F
:100F8000D4E901219047206A401C2062281EA5F167
:100F90000105DCDC07E0D4E9012118F8010B9047DA
:100FA000206A401C2062381EA7F10107F3DC2046AE
:100FB000FFF788FA032011B043E610B5436913B177
:100FC000AFF3008001E0FFF7A0FA012010BD127816
:100FD00000F124010A7000224A700122EDE7116835
:100FE0004FF0FF32E9E710B5436913B1AFF300806A
:100FF00001E0FFF729FB012010BD128800F1240158
:1010000082840022C2840122EDE711684FF0FF3292
:10101000E9E770B516460C46054600F045F803684A
:1010200093F80101012806D0FF2C0FD8185D68B194
:1010300001202C7070BDD3F807013246214603F21F
:10104000071303442846BDE8704018474FF0FF30AF
:1010500070BD000000487047FC1200207546FFF785
:10106000F9FFAE4605006946534620F00700854665
:1010700018B020B5FFF73CF9BDE820404FF000065E
:101080004FF000074FF000084FF0000B21F0070170
:10109000AC46ACE8C009ACE8C009ACE8C009ACE8B3
:1010A000C0098D467047000010B500F005F8001D1E
:1010B00010BD00BFF1340000004870471C13002031
:1010C0002DE9F0411F46044603260168072A01F472
:1010D000006004DB08B116A505E016A503E008B121
:1010E00015A500E015A521F010002060A069C01E24
:1010F000A0610FB1401EA0612046FFF7CDF94FB1AE
:10110000D4E9012138469047206A401C2062C01C67
:10111000206206E0206AFAE7D4E9012115F8010B04
:101120009047761EF8D22046FFF7CCF9BDE8F08153
:101130004E414E006E616E00494E4600696E66007B
:101140002DE9F047814616468AB0334878440DC8E9
:101150008DE80D0030487844801C03AC0DC884E84D
:101160000D0041F69B300844372190FBF1F290FBD3
:10117000F1F5A5F1800501FB12041B3C02D5644288
:10118000012000E00020DFF890A080460027FA440C
:10119000AAF1BE0A0DE0E00709D03246684607EB27
:1011A00047010AEB810100F00FFB8DE80700641096
:1011B0007F1C002CEFD1184F7F44AC3F18E0E807AC
:1011C00014D007EB04100DF1180A90E80E008AE81D
:1011D0000E00C068F04201D198190890324606A965
:1011E00003A800F0F1FA03AB83E807006D10641C5C
:1011F000002DE4D132466946B8F1000F03A802D0B1
:1012000000F0CEFA01E000F0DFFAC9E90001C9F808
:1012100008200AB0BDE8F0873851000010B5044638
:10122000AFF300802046BDE81040FFF74CB8000047
:101230004FF0013C50F8042B51F8043B9A4221D165
:10124000A2EB0C03934313EACC1317D150F8042BF1
:1012500051F8043B9A4215D1A2EB0C03934313EAD5
:10126000CC130BD150F8042B51F8043B9A4209D10E
:10127000A2EB0C03934313EACC13DBD04FF0000036
:10128000704700BFD01A01BAB1FA81F101F018011C
:1012900022FA01F0CB40C1F12001DBB2C0B2C01A8A
:1012A0002CFA01F3D11A914311EAC311E6D1704728
:1012B00001491820ABBEFEE72600020070475FEA36
:1012C000400C08BF91F0000F4FEA8C234FEAC12277
:1012D00043EA51514FEA1C5018BF00F5F0404FEA65
:1012E000300018BF41F000415FEA6C5C00F02980DB
:1012F000BCF1FF3F08BF40F080407047130C06BFB1
:1013000012044FF0100C4FF0000C130E04BF120229
:101310000CF1080C130F04BF12010CF1040C930F15
:1013200004BF92000CF1020CD30F04BF52000CF169
:10133000010C11464FF00002A0F11F00A0EB0C00C1
:10134000704711F0004F08BF704731F000413FF483
:10135000D5AF0B0C06BF09044FF0100C4FF0000C7A
:101360000B0E04BF09020CF1080C0B0F04BF09019E
:101370000CF1040C8B0F04BF89000CF1020CCB0F95
:1013800004BF49000CF1010CCCF12003A0EB0C00D0
:1013900022FA03F302FA0CF241EA030100F1010020
:1013A000704720F07F4C80EA030023F07F47ACEBCE
:1013B000070303F57C5300F0004003F1FF032DE920
:1013C00080494FEA154B09B44FEA144325EA0B4E06
:1013D00024EA03480FF2042606EB132749083E7857
:1013E0005FEA320203FB0667C7F5000707FB06F654
:1013F0004FEA54374FEAD64606F1020607FB066C61
:10140000CCF1005C4FEA1C472CEA074C07FB06F4C2
:101410000CFB06F504EB15464FEA961634BF002088
:101420004FF000404FEAD13706FB07FC4FEA1C4C57
:101430000CFB0BF7D21B03FB0CF761EB07010CFB5A
:101440000EF7B0EB074072EB17420CFB08F734BF06
:10145000A2EB0742B2EB074261EB17414FEA0C44A3
:101460004FEA910706FB07FC4FEA1C4C0CFB0BF7FD
:10147000B0EBC74072EB573203FB0CF734BFA2EB63
:10148000C742B2EBC74261EB57310CFB0EF7B0EB32
:10149000C70072EB57720CFB08F734BFA2EBC70210
:1014A000B2EBC70261EB5771039F4FEA816141EADA
:1014B000921104EBCC044FEAD1374FEA826206FB6B
:1014C00007FC42EA90124FEA80604FEA1C4C0CFB8A
:1014D0000BF7D21B03FB0CF761EB07010CFB0EF7BC
:1014E000B0EB074072EB17420CFB08F734BFA2EBDE
:1014F0000742B2EB074261EB17414FEA8C554FEAC6
:10150000910704EB9C2406FB07FC4FEA1C4C0CFBE8
:101510000BF7B0EBC74072EB573203FB0CF734BF4D
:10152000A2EBC742B2EBC74261EB57310CFB0EF79F
:10153000B0EBC70072EB57720CFB08F734BFA2EB9D
:10154000C702B2EBC70261EB577115EB4C254FEAAE
:10155000816141EA92114FEA82624FEAD13742EA51
:10156000901206FB07FC44F100044FEA80604FEA4A
:101570001C4C0CFB0BF7D21B03FB0CF761EB0701B8
:101580000CFB0EF7B0EB074072EB17420CFB08F7B1
:1015900034BFA2EB0742B2EB074261EB174115EBF8
:1015A0001C154FEA813141EA92414FEA823242EA08
:1015B00090424FEA80304FEA0C7644F1000448EA4A
:1015C00003434EEA0B484FF0000EB2EB080C71EBF0
:1015D000030724BF624639464EEB0E0E4FF0000B58
:1015E0000018524149414BEB0B0BB2EB080C71EB6D
:1015F00003077BF1000B24BF624639464EEB0E0E0B
:101600004FF0000B0018524149414BEB0B0BB2EB72
:10161000080C71EB03077BF1000B24BF62463946CF
:101620004EEB0E0E51EA020718BF46F0010616EB0C
:101630000E7655F1000254F1000103D5BDE8890191
:10164000BDE80088BDE88901BDE80048B6195241EF
:1016500041EB0101A3F10103704780807F7E7D7C17
:101660007B7A7978777676757473727171706F6E34
:101670006E6D6C6C6B6A6A696868676666656464DF
:10168000636362616160605F5F5E5E5D5D5C5C5B69
:101690005B5A5A59595858575756565555555454D8
:1016A000535352525251515050504F4F4F4E4E4D36
:1016B0004D4D4C4C4C4B4B4B4A4A4A494949484882
:1016C00048474747474646464545454444444443C2
:1016D00043434342424242414141002B26D47700DA
:1016E00021D01CB54FEA370703B44FF010004FF07C
:1016F00010014FF000000FBCBDE810400BF1010BD2
:10170000BBF1010F08BF5FEA170722BF12F1010208
:1017100011F101014FF0004143F1000300F00040DE
:1017200043EA00007047F9D35708DAE746EA06466D
:1017300013F1400F4FEA16461FDD13F1200FDFBFF4
:1017400016430A46002120335B42C8D0C3F120076C
:1017500046EA064602FA07F74FEA164646EA070641
:10176000C3F1200722FA03F201FA07F721FA03F185
:101770004FF0000342EA0702B1E746EA020646EAF2
:1017800006464FEA164646EA0106BCBF46EA06464A
:10179000360C4FF000034FF000024FF000019EE7BF
:1017A0002DE9C048934630B491E8380007C831EAC3
:1017B000400C48BF34EA430C03D5FFF7F2FDFFF7B6
:1017C0008CFFF0BCBDE800882DE9C048934630B4DA
:1017D00091E8380007C810F0804F08BF13F0804F21
:1017E00003D100F005F8FFF778FFF0BCBDE80088F2
:1017F00020F07F4780EA030023F07F4C07EB0C03C7
:10180000A3F57C5300F00040A3F1FE0392F0000F1B
:1018100000F0B38095F0000F00F077802DE90149CA
:101820004FEA11404FEA144621EA004800FB06FC4B
:1018300024EA064708FB06F607FB08F800FB07F753
:1018400018EB06484CEB164C4FEA124B18EB0748C6
:101850004FEA15464CEB174022EA0B4E0BFB06FCF9
:1018600025EA06470EFB06F607FB0EFE0BFB07F705
:101870001EEB064E4CEB164C4FF000061EEB074ECF
:101880004CEB174B18EB0B0840F1000018EB0E0B5C
:1018900058EB000840F100008F1A4FF000013CBFE8
:1018A000C943661B14BFB5EB040C00213CBFC94300
:1018B000F61B4FEA17444EEA8E0E27EA04454FEA1C
:1018C0001C4704FB07622CEA074C05FB07F70CFBDF
:1018D00005F604FB0CFC16EB074642EB174216EB31
:1018E0000C4642EB1C421BEB060658EB0202414140
:1018F00046EA9E0601D5BDE80189B619524141EB81
:101900000101A3F10103BDE801894FEA14454FEA43
:10191000114724EA054621EA074C05FB07F406FBBC
:1019200007F70CFB06F105FB0CFC11EB074144EB40
:1019300017444FEA124711EB0C4144EB1C4422EAD6
:10194000074C05FB07F206FB07F70CFB06F605FB49
:101950000CFC16EB074642EB174216EB0C4642EB2B
:101960001C456A1854F1000148BF7047B61952412E
:1019700041EB0101A3F10103704795F0000F37D04F
:101980004FEA11424FEA144721EA024624EA074C83
:1019900002FB07F106FB07F70CFB06F402FB0CFC4D
:1019A00014EB074441EB17414FEA154714EB0C4485
:1019B00041EB1C4125EA074C02FB07F506FB07F744
:1019C0000CFB06F602FB0CFC16EB074645EB174535
:1019D00016EB0C4645EB1C42121951F1000148BFB1
:1019E0007047B619524141EB0101A3F10103704761
:1019F0004FEA14454FEA114724EA054621EA074C0D
:101A000005FB07F106FB07F70CFB06F24FF000069B
:101A100005FB0CFC12EB074241EB174112EB0C42A9
:101A200051EB1C4148BF7047921841EB0101A3F1F3
:101A30000103704770B522480088401C2049088087
:101A4000002034E01F4B53F8203019B21D4B53F8DF
:101A500020301B0C1AB21C4B1D685B68AD1843EBA1
:101A6000E273194C2560636012FB02F34FEAE374E2
:101A7000164E356876685B197441144D2B606C60A6
:101A8000134B1D685B686D1843EBE173104C2560C8
:101A9000636011FB01F34FEAE3740E4E356876681C
:101AA0005B1974410B4D2B606C60411C88B2B0F522
:101AB0007A7FC7DB4FF400700749086070BD0000F3
:101AC00020000020AC0000200000002010000020BA
:101AD00008000020180000200404024010B541480E
:101AE000006800F40060C0B13F480078401C3E49E7
:101AF000087001203D4908703B480078062802DB49
:101B0000002039490870384800783949086035485C
:101B1000006840F40060334908603248006800F40F
:101B20000050A8B13348007880F0010031490870B6
:101B30000846007818B130483049086002E0304863
:101B40002E4908602748006840F400502549086085
:101B50002448006800F4804060B32348007890B9BE
:101B600028480078401C2749087008460078032858
:101B700001DD0020087001F051FC224800781C496A
:101B8000091D086010E01848007801280CD11E4893
:101B9000007880F001001C49087001F02FFC1A4801
:101BA00000781349083108600E48006840F480400E
:101BB0000C4908600B48006800F4004080B11348ED
:101BC000007880F001001149087008460078084943
:101BD0000C3108600348006840F400400149086087
:101BE00010BD00001404014080000020810000208E
:101BF0005428004083000020400080001804004862
:101C00008000400085000020840000208200002029
:101C10001948006840F470001749086017480068C8
:101C200040F0010015490860084640681449084022
:101C30001249486008460068124908400F49086088
:101C40000846006820F4802008600846406820F4B8
:101C5000FE0048600846C06A20F00F00C8620846CF
:101C6000006B094908400549086300208860C803E3
:101C7000014980390860704788ED00E0001002409B
:101C80000CC07FF8FFFFF6FECCFC00FF10B52DED79
:101C9000028B4648008800EB4001C1EBC0104FF6B4
:101CA000FF7101EAC000424908804248007820B331
:101CB00041490868496802F0BFFC00EE100A3C4840
:101CC000008800EE900AF8EE600A80EE201A3B4889
:101CD00080ED001A3A490868496802F0ADFC00EE50
:101CE000100A3348008800EE900AF8EE600A80EE91
:101CF000201A344880ED001A2FE0334908684968FB
:101D000002F097FC00EE100A2948008800EE900AC5
:101D1000F8EE600A80EE201AB0EE418AB0EE480A72
:101D200002F0C0FB294880ED000A2949086849688B
:101D300002F07FFC00EE100A1D48008800EE900AB9
:101D4000F8EE600A80EE201AB0EE418AB0EE480A42
:101D500002F0A8FB1F4880ED000A0020164A106020
:101D600050600021164A11605160174A106050609F
:101D7000174A106050600D4908804FF08040406A5B
:101D800040000021144A1060516000204FF0804153
:101D900048620120114908701148006820F00100D4
:101DA0000F490860BDEC028B10BD00002000002030
:101DB00034000020820000200000002024000020C9
:101DC000080000202C000020100000202800002027
:101DD0001800002030000020380000208100002082
:101DE0001004004010B56648406840F0284064493F
:101DF00048600846806940F0407088610846C069C4
:101E000040F08050C8615F48006840F4C0605D49A0
:101E100008605D48006840F470205B4908605B48DA
:101E2000006840F00F00594908605948406840F088
:101E30000100574948605748006840F00100554983
:101E40000860642001F0E2FE5148006840F0004064
:101E50004F4908604F48001F006840F000404D495E
:101E6000091F0860642001F0D1FE4948406840F431
:101E70008000474948604748006840F48000454971
:101E800008604348006840F4003041490860414818
:101E9000001F006840F400403E49091F08603C48AC
:101EA000406840F4C0203A4948603A48006840F42D
:101EB0000020384908603648406840F08070344956
:101EC00048603448006840F080703249086031480A
:101ED0002030006840F440102E49203108602C4822
:101EE000006820F000402A4908602A48001F006866
:101EF00020F000402749091F08602148406940F050
:101F000002001F4948612448006840F440502249BB
:101F100008600846006840F0020008600846006853
:101F200040F4006008600846006840F400700860F3
:101F30000846006840F0800008600846006840F0ED
:101F4000200008604FF47A70091D08601048743052
:101F5000091D08601148091D08603A200221002867
:101F600004DB0A07130E0E4A135406E00A07140E88
:101F70000C4A00F00F031B1FD45400BF10BD00001B
:101F800000100240007000400010004800040048AB
:101F9000006001400464014030040240AC000020B5
:101FA00000E400E018ED00E010B5044602480470BB
:101FB00001F05CFD10BD00009A00002010B5C020AB
:101FC00021490860214801F0A7FF21491F4802F07C
:101FD000E3F82048204A127850F8221014230022F7
:101FE0001A4802F0C7F81D481B4A127850F8221010
:101FF00023230022154802F0BDF8144802F08AF8A5
:102000004FF47A7001F0D2FD15480F49086012486C
:102010000078062816D2DFE800F00306090C0F123C
:1020200000F042FE0EE000F0A5FC0BE000F0F6FF31
:1020300008E000F0B1FB05E001F07CFB02E000F0FD
:1020400085FD00BF00BF10BD180400484C000020F3
:10205000705200085000002080000020680000201E
:102060008000400000B5024603E012F8010B01F0C9
:1020700019FF10780028F8D100BD00000D48006855
:1020800040F001000B4908600B48406840F4000034
:10209000094948603A20002809DB00F01F020121AD
:1020A00091404209920002F1E022C2F8001100BF03
:1020B0007047000030040240006001400348C069DE
:1020C00040F004000149C861704700000010024060
:1020D000114909684FF0007242EA004242F48062FE
:1020E00011430D4A11601146096841F40051116015
:1020F00000210EE000BF084A1432126802F0040208
:10210000002AF8D0044A20321268044B5A544A1C60
:10211000D1B28142EEDB704704540040F01200203F
:102120000FB408B500BF0A4800780028FBD103A807
:1021300000907F210748009B029AFEF763F9002078
:1021400000900448FFF78EFF01B05DF814FB00001B
:10215000990000206412002014480068144909788E
:102160004FF0007242EA01410843104908600846F6
:10217000006840F40050086000200EE00D49095C42
:102180000A4A2432116000BF08491431096801F07D
:1021900001010029F8D0411CC8B2054909788842DC
:1021A000ECDB002002490870704700000454004036
:1021B000A3000020E412002070B52DED088BFEA0D6
:1021C000FFF750FF2021092000F0C6FE400000EE7E
:1021D000100AB8EEC00ADFEDFE0A80EE801AB0EEFB
:1021E000419A19EE100A02F0F9F941EC180B53EC80
:1021F000182BF8A0FFF794FFFD48006840F08050CE
:10220000FB4908600805FA49183108604FF0904012
:10221000006820F440504FF090410860F448006896
:1022200020F04040F24908604FF09040006840F0D4
:1022300030004FF0904108600846006840F480602C
:1022400008604FF4001088610846006820F4407070
:1022500008600846006820F0C00008600846006872
:1022600040F00C000860642001F0A0FCE048006829
:1022700020F04050DE4908604FF09040006820F4A4
:1022800040604FF0904108600846006820F0200050
:1022900008604FF48020D649183108604FF0904014
:1022A000006840F480704FF0904108601020886111
:1022B000642001F07BFC4FF09040006820F44070F7
:1022C0004FF0904108604FF47A7001F09FFC1021AC
:1022D000012000F041FE05462946C6A0FFF720FF79
:1022E000B5F5FA7F5DDDCAA0FFF7BCFE4FF0904068
:1022F000006840F480604FF0904108604FF4001097
:102300008861642001F052FC4FF09040006820F496
:1023100040604FF0904108600846006820F00800D7
:1023200008604FF40030B249183108604FF0904017
:10233000006840F00C004FF09041086008460068CB
:1023400040F4807008601020886100F0EBFD00BF51
:102350000121084600F000FE40F614218842F7DB18
:1023600000F00CFA04462146ABA0FFF7D9FE00EEC0
:10237000104AB8EE400ADFEDAE0A80EE208A18EE71
:10238000100A02F02BF941EC1A0B53EC1A2BA9A0FE
:10239000FFF7C6FE0320B1490870B14880ED008AFE
:1023A000F3E0B0A0FFF75EFE4FF09040006840F40D
:1023B00080704FF09041086010208861102101204A
:1023C00000F0CAFD00EE100AB8EE400ADFEDA70AE1
:1023D00089EE201A20EE010AB0EE408A9FED940AA1
:1023E00028EE000A79EE480A80EE201AF0EE419AB3
:1023F00018EE100A02F0F2F841EC1B0B53EC1B2B09
:102400009BA0FFF78DFE19EE900A02F0E7F841EC71
:102410001B0B53EC1B2B9EA0FFF782FE4FF090404E
:10242000006820F008004FF0904108604FF4003041
:102430006F49183108604FF09040006840F030005C
:102440004FF0904108600846006820F44070086032
:102450000846006840F480500860402088611021E0
:10246000022000F079FD00EE100AB8EE400ADFED20
:102470007F0A89EE201A20EE010AF0EE408A9FEDD5
:102480006C0A28EE800A79EE680A80EE201AB0EE17
:1024900041AA18EE900A02F0A1F841EC1B0B53EC94
:1024A0001B2B82A0FFF73CFE1AEE100A02F096F8F2
:1024B00041EC1B0B53EC1B2B84A0FFF731FE39EED4
:1024C0008A0AF0EE000A80EE201AF0EE41AA9FED93
:1024D000860AB4EEC08AF1EE10FA01DD012000E0B8
:1024E00000209FED810AF4EEC08AF1EE10FA01DDC2
:1024F000012100E00021084018B17CA0FFF7B2FDE7
:1025000042E039EECA0AF0EEC00AB5EE000A2AEE41
:10251000800AF4EEC00AF1EE10FA11D21AEE900A17
:1025200002F05CF841EC1B0B53EC1B2B76A0FFF781
:10253000F7FD0120494908704948C0ED00AA23E091
:10254000B4EEE88AF1EE10FA02DD18EE900A01E02E
:1025500018EE100A014602F041F841EC1B0B53EC57
:102560001B2B74A0FFF7DCFD02203C490870B4EE81
:10257000E88AF1EE10FA02DDB0EE680A01E0B0EE92
:10258000480A374880ED000A00BF76A0FFF76AFDD1
:102590004FF09040006820F440504FF090410860A8
:1025A0000846006840F0300008600846006840F0C7
:1025B0000C000860DEE00000434F4D504F4E454E8A
:1025C00054205445535420535441525445440A0016
:1025D0006666E645537570706C7920766F6C746131
:1025E00067653A2025342E326620560A0000000026
:1025F00000040048566F6C74616765206F6E20544C
:1026000050323A2025346420414443202D3E0000BE
:10261000204C430A0000000074696D6520636F6EF2
:102620007374616E743A202535642075730A000056
:1026300000800945436170616369746F7220776936
:1026400074682061206361706163697479206F66CA
:102650002025362E32662075460A0000AA0000208A
:10266000A40000202052440A000000000000804521
:10267000766F6C74616765206F6E2070696E205490
:1026800050323A2025352E336620560A00000000CD
:10269000726573697374616E6365207241423A209A
:1026A00025352E3066204F686D0A0000766F6C74F9
:1026B000616765206F6E2070696E205450313A203A
:1026C00025352E336620560A0000000072657369B6
:1026D0007374616E6365207242413A2025352E3055
:1026E00066204F686D0A00009A9919404E6F20636A
:1026F0006F6E6E656374696F6E2062657477656571
:102700006E2070696E730A005265736973746F721C
:102710002077697468206120726573697374616ED3
:102720006365206F662025352E3066204F686D0A60
:102730000000000044696F64652077697468206157
:1027400020666F727761726420766F6C7461676562
:102750002064726F70206F662025352E33662056F8
:102760000A000000544553542046494E49534845F9
:10277000440A0000BDEC088B70BD000005480068ED
:1027800020F001000349086002482430006880B24C
:10279000704700000008004010B52DED068B4FF487
:1027A00080504FF0904188610846006840F4806096
:1027B0000860202088610846006820F440700860A6
:1027C0000846006820F0C00008609EE0594801F00B
:1027D000A3FB1021012000F0BFFB00EE100AB8EEB1
:1027E000400ADFED550A20EE200ADFED540A80EEA4
:1027F000201AB0EE418A9FED520AB4EEC08AF1EE83
:1028000010FA03DD9FED4C0AB0EE408A9FED4A0AB4
:1028100030EE480ADFED4B0AC0EE208AF5EEC08AA2
:10282000F1EE10FA03D29FED480AF0EE408A88EEEE
:10283000289A9FED460AB4EEC09AF1EE10FA05D23E
:102840004FF480704FF09041886104E04FF0807049
:102850004FF0904188613E49364801F09DFC1622B8
:102860000021344801F014FE19EE100A01F0B6FE02
:1028700041EC1A0B53EC1A2B36A12E4801F024FC24
:1028800036492C4801F088FC1F23332234A1294803
:1028900001F070FC28222321264801F0F9FD18EEF2
:1028A000100A01F09BFE41EC1A0B53EC1A2B2DA1E0
:1028B000204801F009FC302233211E4801F0E8FDD8
:1028C0000821002000F048FB400000EE100AB8EE9E
:1028D000C00ADFED190A20EE200ADFED180A80EEAB
:1028E000201A11EE104A204601F078FE41EC1A0B36
:1028F00053EC1A2B1CA10F4801F0E6FB0D4801F028
:1029000009FC642001F052F900BF1948007803283F
:102910003FF45CAF4FF080704FF090418861084603
:10292000006820F4406008604FF080508861BDEC82
:10293000068B10BD4C000020295C3F400000804504
:102940009A9939400000734300000000000048429B
:10295000BC61000825352E3066000000804B000861
:102960004F484D0055663A2025342E3266205600D9
:102970008000002010B52DED048BA5E0564801F035
:10298000CBFA5649544801F007FC55485549097897
:1029900000EB810090ED000A5348007818B15348CD
:1029A000D0ED000A02E05248D0ED000A51484D49EE
:1029B000097800EB810090ED001AB0EE408A00EE3D
:1029C000818A48480078D8B116220021424801F097
:1029D0005FFD18EE100A01F001FE41EC190B53ECFB
:1029E000192B45A13C4801F06FFB45493A4801F0DD
:1029F000D3FB1F23152243A1374801F0BBFB1AE08C
:102A000016220021344801F043FD18EE100A01F0AF
:102A1000E5FD41EC190B53EC192B3CA12E4801F0BC
:102A200053FB37492C4801F0B7FB1F23202239A163
:102A3000294801F09FFB2C48007808B137A000E03E
:102A400037A001461F233C22234801F093FB30228C
:102A50003321214801F01CFD0821002000F07CFA00
:102A6000400000EE100AB8EEC00ADFED2E0A20EE9C
:102A7000200ADFED2D0A80EE201A11EE104A2046C2
:102A800001F0ACFD41EC190B53EC192B27A11248B6
:102A900001F01AFB104801F03DFB18EE100A01F09E
:102AA0009DFD41EC190B53EC192B22A0FFF738FBCD
:102AB00000BF234800780028FBD022480078002877
:102AC000F7D11F49087000BF1F48007801283FF464
:102AD00055AFBDEC048B10BD4C000020BC6100085C
:102AE0009000002084000020820000202C000020A4
:102AF00030000020880000202530352E316600008F
:102B0000804B0008323530206D41000025352E33D2
:102B100066000000322E35204100000020444300B2
:102B2000524D5300295C3F400000804525342E3231
:102B30006620560025352E3366206D4100000000CA
:102B400081000020830000208000002070B52DED62
:102B5000028B4FF09040006820F440604FF09041AD
:102B600008600846006840F4006008600846006A93
:102B700040F4801008626CE03D4801F0CDF93D4919
:102B80003B4801F009FB16220021394801F080FC86
:102B9000394801684068394BC91A70F1000011D2F8
:102BA00035480268436836A1314801F08DFA35494D
:102BB0002F4801F0F1FA1F233C2233A12C4801F0E9
:102BC000D9FA18E04FF47A7200232B490868496853
:102BD000FDF7A0FB044622460B4629A1244801F03C
:102BE00073FA2849224801F0D7FA1F23372227A178
:102BF0001F4801F0BFFA302233211D4801F048FC84
:102C00000821002000F0A8F9400000EE100AB8EEFC
:102C1000C00ADFED1F0A20EE200ADFED1E0A80EE5B
:102C2000201A11EE104A204601F0D8FC41EC180B96
:102C300053EC182B18A10E4801F046FA0C4801F08D
:102C400069FA00BF164800780028FBD0002014491C
:102C500008701448007805288ED04FF09040006826
:102C600020F440604FF090410860BDEC028B70BDD5
:102C70004C000020BC61000838000020A086010044
:102C800025356400804B0008487A00006B487A00C4
:102C9000295C3F400000804525342E3266205600D6
:102CA000810000208000002010B52DED048BE2E0B3
:102CB000754801F031F97549734801F06DFA7448AF
:102CC0007449097800EB810090ED000A72480078A1
:102CD00018B17248D0ED000A02E07148D0ED000A48
:102CE00070486C49097800EB810090ED001AB0EE55
:102CF000408A00EE818A16220021634801F0C8FB59
:102D00006448007830B101281BD0022830D0032855
:102D100066D149E018EE100A01F060FC41EC190B95
:102D200053EC192B60A1584801F0CEF96049564880
:102D300001F032FA1F2323225EA1534801F01AFA50
:102D40004FE018EE100A01F049FC41EC190B53EC6E
:102D5000192B5AA14C4801F0B7F955494A4801F0DE
:102D60001BFA1F23232257A1474801F003FA38E03A
:102D700018EE100A01F032FC41EC190B53EC192B40
:102D800051A1414801F0A0F94FF080704FF09041FF
:102D9000886147493C4801F0FFF91F2314224CA1E8
:102DA000394801F0E7F91CE018EE100A01F016FCB2
:102DB00041EC190B53EC192B47A1334801F084F96E
:102DC0004FF080704FF09041886139492E4801F0F2
:102DD000E3F91F231A2242A12B4801F0CBF900E0AE
:102DE00000BF00BF2C48007808B13FA000E03FA022
:102DF00001461F233C22244801F0BCF93022332134
:102E0000214801F045FB0821002000F0A5F8400012
:102E100000EE100AB8EEC00ADFED350A20EE200AF7
:102E2000DFED340A80EE201A11EE104A204601F040
:102E3000D5FB41EC190B53EC192B2FA1124801F0D3
:102E400043F9114801F066F918EE100A01F0C6FBCB
:102E500041EC190B53EC192B29A0FFF761F900BFC6
:102E60002A4800780028FBD0294800780028F7D1AC
:102E70002649087000BF2748007800283FF418AFA3
:102E8000BDEC048B10BD00004C000020BC610008AC
:102E90005412002085000020820000202400002021
:102EA000280000204412002025362E326600000043
:102EB000804B0008363020560000000025352E33A8
:102EC000660000003620560025352E3166000000D1
:102ED000363030206D56000025342E31660000005B
:102EE0003630206D5600000044430000524D530020
:102EF000295C3F400000804525342E326620560074
:102F000025362E336620560A00000000810000207E
:102F1000830000208000002001460148405C70478B
:102F2000F012002048200B4908600A481438006855
:102F300040F0010007491439086000200549091FC5
:102F4000086004482838006840F001000149283929
:102F5000086070472808004030B50246002310483A
:102F60000260002015E00E4C2C3C246844F0010463
:102F70000B4D2C3D2C6000BF094C343C246804F000
:102F80000204022CF8D1064C183424682344441C53
:102F9000E0B28842E7DBB3FBF1F080B230BD000065
:102FA0003424014010B504460948007800F056FD6D
:102FB000204600F015FAFFF7CFF80548007800F03A
:102FC0004DFD0120FFF784F80020FFF7A5FF10BD9D
:102FD0009A00002070B505460E48007800F03EFDCE
:102FE000284600F0FDF9FFF7B7F80A48007800F02E
:102FF00035FD0820FFF76CF8002406E02046FFF7B7
:103000008BFF05490855601CC4B2082CF6DB02484A
:1030100070BD00009A0000209B00002010B52DED2F
:10302000088B84B054E1AF4800F076FFAE48AF495A
:10303000097800EB810090ED000AAD48007818B1E6
:10304000AC48D0ED000A02E0AB48D0ED000AAB4836
:10305000A649097800EB810090ED001AB0EE408A95
:1030600000EE818AA648A749097800EB810090ED1F
:10307000000A9F48007818B1A348D0ED000A02E08A
:10308000A248D0ED000AA2489E49097800EB8100D1
:1030900090ED001AF0EE408A40EE818A9D499148F9
:1030A00001F07AF8162200218E4801F0F1F928EE9D
:1030B000280AF0EEC00A10EE904A204601F08EFA7F
:1030C00041EC190B53EC192B93A1864800F0FCFF3F
:1030D0009349844801F060F884480078022801DAB6
:1030E000012000E000208749097881F001010840B3
:1030F00060B17F48007808B18AA000E08BA001464B
:1031000030230022774801F035F823E07748007833
:10311000012801DD012000E000207A4909780840FB
:1031200060B17348007808B182A000E083A0014636
:10313000302300226B4801F01DF80BE06C4800784A
:1031400008B180A000E081A001463023002265483C
:1031500001F010F81F220021624801F099F963483C
:10316000007802280CDA18EE100A01F037FA41EC68
:10317000190B53EC192B77A15A4800F0A5FF0BE06F
:1031800018EE100A01F02AFA41EC190B53EC192B36
:1031900072A1544800F098FF1F222C21514801F0E1
:1031A00077F95248007830B1012809D002280CD0B4
:1031B000032814D10EE06CA14A4800F061FF0EE034
:1031C0006BA1484800F05CFF09E06BA1454800F0A6
:1031D00057FF04E06AA1434800F052FF00BF00BF60
:1031E000282200213F4801F053F94648007810B1E9
:1031F000B0EE680A03E09FED640A28EE800A10EE44
:10320000101A084601F0EAF941EC190B53EC192B9E
:103210005EA1344800F058FF3A48007808B15DA03C
:1032200000E05EA0014628231E222E4800F0A2FFE7
:10323000302233212B4801F02BF908210020FFF721
:103240008BFE400000EE100AB8EEC00ADFED560A11
:1032500020EE200ADFED550A80EE201A11EE104A0A
:10326000204601F0BBF941EC190B53EC192B50A18E
:103270001C4800F029FF1B4800F04CFF28EE280AEC
:1032800010EE101A084601F0A9F941EC190B18EEDE
:10329000900A01F0A3F941EC1A0B18EE100A01F0A4
:1032A0009DF941EC1B0B8DED029B8DED00AB53ECBA
:1032B0001B2B41A0FEF734FF00BF464800780028D2
:1032C000FBD0454800780028F7D14249087000BF7C
:1032D0004248007802283FF4A6AE04B0BDEC088B4B
:1032E00010BD00004C00002054120020850000207A
:1032F000820000202400002028000020441200202A
:1033000090000020840000202C00002030000020CD
:1033100088000020BC61000825352E3266000000C0
:10332000804B000857204443000000005720524DB6
:103330005300000075572044430000007557205289
:103340004D5300006D572044430000006D5720523C
:103350004D53000025352E326620560025352E317E
:1033600066206D56000000002F3630205600000009
:103370002F362056000000002F363030206D5600CA
:103380002F3630206D56000000007A4425342E3050
:10339000660000002F323530206D41002F3235306D
:1033A00030206D4100000000295C3F400000804556
:1033B00025342E326620560025362E336620563BA5
:1033C0002025352E33206D413B2025352E326620B9
:1033D00057000000810000208300002080000020B2
:1033E00004490A780978491C024B1970024988542B
:1033F00070470000A3000020E41200200548007878
:1034000018B104200449086003E04FF48020024909
:1034100008607047840000201804004810B52D484B
:10342000007830B1012824D0022828D003284DD1BB
:103430002CE04FF4800028490860400008602748CD
:10344000006820F001002549086000202349403130
:1034500008602248006840F001002049086096207A
:1034600000F0D4FB1D48006840F400001B490860D0
:103470002DE04020184908604004086027E04FF420
:103480008000154908608020086020E04FF480002B
:1034900011490860802008601048006820F0010091
:1034A0000E49086001200D49403108600B48006852
:1034B00040F0010009490860962000F0A7FB07488A
:1034C000006840F400000549086000E000BF00BF4C
:1034D00010BD00008500002018140048046401405D
:1034E000002809DB00F01F020121914042099200EF
:1034F00002F1E022C2F800117047000070B52DED16
:10350000028B00F0ABFB08225021444800F032FD52
:103510004349424800F040FE0E231A4641A13F486D
:1035200000F028FE1D23142240A13C4800F022FE9A
:103530003F493A4800F030FE26230A223DA1374891
:1035400000F018FE302300223EA1344800F012FEA5
:1035500030222C21314800F09BFF08210020FFF78A
:10356000FBFC400000EE100AB8EEC00ADFED370A9F
:1035700020EE200ADFED360A80EE201A11EE104A06
:10358000204601F02BF841EC180B53EC182B31A11D
:10359000224800F099FD214800F0BCFD00F090FCAD
:1035A0002FA0FEF75FFD5020FEF7FEFC0020FFF786
:1035B000F9FC0546C02D25D100240CE0374B03EB68
:1035C0008402374B03EB8401E3000833D8B200F0E8
:1035D00029FA601CC4B2042CF0DB00240CE0314B4F
:1035E00003EB8402304B03EB8401E3002833D8B2B1
:1035F00000F018FA601CC4B2022CF0DB2BA0FEF71E
:1036000031FD07E033483449086034A0FEF72AFD55
:1036100000BFFEE7BDEC028B70BD00004C00002037
:103620007052000853544D3332000000444D4D0099
:10363000804B0008656D626564626C6F672E65750E
:103640000000000046573A312E354100295C3F40CA
:1036500000008045423A25342E3266205600000094
:1036600053544D3332204F70656E20536F75726323
:1036700065204D756C74696D657465720A72657646
:103680006973696F6E20312E3520202020656D62B0
:103690006564626C6F672E65750A00005412002025
:1036A00044120020900000208800002063616C69B3
:1036B00062726174696F6E20666C6F617473206CE6
:1036C0006F616465642066726F6D20454550524F8E
:1036D0004D0A00004000800018040048636F756CBC
:1036E00064206E6F74206C6F61642063616C69622A
:1036F000726174696F6E20666C6F6174732066729C
:103700006F6D20454550524F4D210A0010B50028DD
:1037100004DB0A07130E054A135406E00A07140EC9
:10372000034A00F00F031B1FD45410BD00E400E057
:1037300018ED00E010B52DED028B82B0C02080495D
:103740000860804800F0E8FB7F497E4800F024FDD7
:10375000082300227DA17B4800F00CFD01200A21F6
:1037600060230A46CDE900100021764800F0AEFD46
:103770001423102278A1734800F0FCFC1E230E22B3
:1037800079A1704800F0F6FC6E4800F0C3FCCEE072
:1037900000BF7948007880F0010078490978042951
:1037A00001D1012100E0002108400028F1D1724937
:1037B0000870C02062490860002071490870FEF757
:1037C000FBFC604800F0A8FB08230E225FA15D48C7
:1037D00000F0D0FC01200A2160230A46CDE9001048
:1037E0000021584800F072FD30223321554800F086
:1037F0004FFE08210020FFF7AFFB400000EE100A4B
:10380000B8EEC00ADFED5F0A20EE200ADFED5E0AA7
:1038100080EE201A11EE104A204600F0DFFE41EC47
:10382000180B53EC182B59A1464800F04DFC544896
:103830000078012804D0022826D003286CD147E064
:1038400014220F213F4800F023FE52A13D4800F012
:1038500017FC1D220A213B4800F01AFE50A13948EE
:1038600000F00EFC26220A21364800F011FE5048D6
:10387000006800F0B3FE41EC180B53EC182B4DA17F
:10388000304800F021FC4EE0142211462D4800F093
:10389000FFFD4CA12B4800F0F3FB1D220F2129480E
:1038A00000F0F6FD49A1274800F0EAFB26220A2194
:1038B000244800F0EDFD3E48006800F08FFE41EC2A
:1038C000180B53EC182B44A11E4800F0FDFB2AE016
:1038D00014220A211B4800F0DBFD43A1194800F027
:1038E000CFFB1D220B21174800F0D2FD41A1154846
:1038F00000F0C6FB26220921124800F0C9FD2C4821
:10390000006800F06BFE41EC180B53EC182B3DA146
:103910000C4800F0D9FB06E0142300223DA1094821
:1039200000F028FC00BF00BF064800F0F3FB13487E
:10393000007804283FF42CAF02B0BDEC028B10BD20
:10394000180400484C000020804B0008434F4D50A5
:103950002E2054455354000050726573732027681D
:103960006F6C642700000000746F207374617274C0
:103970002074657374000000830000208000002024
:10398000AA000020295C3F400000804525342E32EB
:10399000662056005245534953544F5200000000D0
:1039A000545031202D3D3D2D205450320000000058
:1039B000A400002052203D2025352E3066204F687F
:1039C0006D00000044494F44450000005450312030
:1039D0002D3E2D20545032005566203D2025352E99
:1039E0003366205600000000434150414349544F84
:1039F00052000000545031202D7C7C2D2054503238
:103A00000000000043203D2025362E3266207546FA
:103A1000000000004E6F7468696E6720666F756EF7
:103A2000640000002DE9F04180460D4616464046F0
:103A3000FFF7D0FA0746002403E0385D2855601CE4
:103A4000C4B2042CF9DB002404E0381900793055A5
:103A5000601CC4B2042CF8DBBDE8F0814106090EFD
:103A6000014A116070470000045400401648C069C4
:103A700040F400101449C8611448006840F4202044
:103A80001249086011480830006840F470200F495E
:103A9000083108600D48406A40F044010B4841621B
:103AA000001D006840F440700849091D086008487E
:103AB0000849086007481038006840F001000549CF
:103AC00010390860704700000010024000040048F0
:103AD000090331001054004010B51A48006840F442
:103AE00080701849086018480068C0281CD1164822
:103AF000001D006815490870134808300068144913
:103B0000087011480C30006808B1012000E0002066
:103B1000104908700C481030006808B1012000E01E
:103B200000200D49087002E0C02007490860FFF737
:103B300075FCFFF763FC4FF080504FF090418861B7
:103B400010BD0000007000405028004080000020A0
:103B50008500002084000020820000200F4840687B
:103B60000F4908430D494860084600680D4908435D
:103B70000A4908600C48006840F002000A490860E1
:103B800000BF0648006800F000700028F9D0034824
:103B9000406840F002000149486070470010024050
:103BA00000041D00000001010020024000EB800124
:103BB0004FF6FF7202EA410041F61F41124A1160BE
:103BC00011491439096841F001010F4A143A116092
:103BD00000210D4A121F11600B492839096841F074
:103BE0000101094A283A116000BF0749091F096805
:103BF0008142FAD304492839096821F00101024AB7
:103C0000283A116070470000280800404721124AF6
:103C1000116011491439096841F001010E4A143A42
:103C2000116000210C4A121F11600B4928390968E4
:103C300041F00101084A283A116000BF0649091FF6
:103C400009688142FAD304492839096821F0010141
:103C5000014A283A11607047280800401A488069D4
:103C600040F40070184988614FF09040006840F0BF
:103C70003F004FF0904108601448006840F00C008D
:103C80001249086012480068124908431049086048
:103C90000F480838006840F001000D4908390860F5
:103CA0000846006840F0080008600846006840F0D8
:103CB0000400086000BF06480838006800F00400EF
:103CC0000428F8D0704700000010024000040048AB
:103CD00010240140FF01000710B51A48006840F0A9
:103CE000A840184908604FF09040C06840F4800038
:103CF0004FF09041C8601448806940F001001249BB
:103D0000886112480069114908610846406942F219
:103D1000202108430D4948610D48006840F468407F
:103D20000B4908600A480C30006840F468400849B4
:103D30000C31086007212820FFF7E8FC2820FFF756
:103D4000CFFB10BD0C0800480010024000000140ED
:103D5000000401402B48406940F4FC0029494861B7
:103D60004FF09040006840F080704FF09041086044
:103D70000846806840F0407088600846006840F45B
:103D8000803008600846806840F4403088601E48F3
:103D9000006840F4A0401C4908601B4808300068D7
:103DA00040F470401849083108601848006840F035
:103DB00010001649086015480830006840F03000CF
:103DC0001249083108601148006840F4A0400F49CA
:103DD00008600E480830006840F470400B49083114
:103DE00008604FF09040806840F47F504FF0904161
:103DF000886006480830006840F070400349083188
:103E00000860704700100240001400480004004899
:103E10000748C06940F001000549C8614FF480407F
:103E2000010488600004006840F0010008607047E9
:103E30000010024010B51948C06940F0020017494F
:103E4000C86141F61F401649086041F28830091DDB
:103E5000086013481438006840F001001049143914
:103E6000086000200E49091F08600D481C380068D2
:103E700040F001000A491C39086001211D20FFF7AC
:103E800045FC1D20FFF72CFB05482838006840F052
:103E9000010003492839086010BD000000100240ED
:103EA000280400400549088000BF04490C3909680E
:103EB00001F080018029F8D17047000028380140C6
:103EC0001348806940F48040114988614FF0904068
:103ED000006840F420104FF0904108600846806868
:103EE00040F4701088600846406A40F4EE614FF07C
:103EF0009040416241F64C500649086005480C3834
:103F0000006840F00D0003490C390860704700005C
:103F1000001002400C38014010B504464FF4FC710B
:103F20000448FCF789FA0020034908700349087027
:103F300010BD00004C10002044000020450000206F
:103F40002DE9FC4707460D4690461E46DDE90A9AD4
:103F5000ACB209E023B2424621B23846CDE9009A1C
:103F600000F0B4F9601C84B2A819A042F2DCBDE8EC
:103F7000FC87000070B506460C4615463B480068B5
:103F800040F41860394908600846006820F4007061
:103F900008604FF09040006820F000404FF09041E2
:103FA00008600846006840F0804008600846C06825
:103FB00020F08040C8602D480C30006820F48070EC
:103FC0002A490C310860081F006840F47C60091F12
:103FD00008604FF09040806840F040404FF09041C2
:103FE00088602348806940F48050214988612148D5
:103FF0001E49203108602048006840F020001E491A
:1040000008600846406840F00400486008460068C0
:1040100040F044000860C8044FF0904188613220AD
:10402000FFF7C4FD4FF400404FF0904188614FF41A
:10403000FC711248FCF700FA2121304600F05CF8D0
:1040400045F01001304600F057F87F2C00DD7F244A
:1040500044F08001304600F04FF82021304600F057
:104060004BF80C21304600F047F870BD00040048C2
:104070000010024000505000003001404C10002061
:104080003EB505460C4611E00A4800780A49097811
:104090000A4A1278CDE90021029014F8013B084841
:1040A000027808480178284600F090F82078002827
:1040B000EAD13EBD46000020480000204700002015
:1040C00045000020440000200FB430B587B00446FE
:1040D00018250CA80090691E01A8009B0B9AFCF7FC
:1040E00091F90020009001A92046FFF7C9FF07B011
:1040F00030BC5DF814FB000070B504460D464FF46B
:104100008010034908602946204600F04BF970BD35
:10411000180400482DE9F041074600251DE045F050
:1041200040013846FFF7E8FF0024532644F08001A1
:104130003846FFF7E1FF10200C49086009E05420E1
:1041400000FB05400A4A115C384600F02BF9601C60
:10415000C4B2B442F3DD681CC5B2062DDFDB4021DA
:104160003846FFF7C9FFBDE8F08100001804004899
:104170004C100020F0B506460F4614461D46044874
:1041800004700448057039463046FFF779FFF0BDEA
:10419000440000204500002041B10A4A12686AB973
:1041A000094A1278921D084B1A7007E0054A1268F6
:1041B00022B1054A1278921F034B1A70014A11600E
:1041C0007047000040000020450000202DE9FF4F0F
:1041D0008CB0884691469A46DDF864B01B9C3948FD
:1041E0000068007AAAEB000000F0FF0A354800687A
:1041F000406800EBCA053348006800680B902888C7
:104200000A90A8780990E878089095F90500079039
:1042100095F9060006900020059004900390029006
:10422000012C03DD079803900698029000263DE0DC
:10423000002736E00498411CC9B200F00700049141
:1042400030B90A98411C89B20A910B99085C059013
:10425000059800F08000F0B1012C0CD1069848447C
:10426000304402B207984044384401B25B460C988F
:1042700000F0AAF80FE0CDE9004B0298304400FBB3
:10428000049002B20398384400FB048001B2234634
:104290000C98FFF755FE05984006000E0590781C17
:1042A000C7B209988742C5DB701CC6B2089886421F
:1042B000BEDB28790449097808440349087010B026
:1042C000BDE8F08F40000020440000202DE9FF4FA2
:1042D00081B00C4615461E460E9F791B002901DB56
:1042E0000A4600E04A42301B002801DB034600E09A
:1042F00043429A4201DD012200E000229346BBF1D5
:10430000000F06D020462C46054630463E4607465E
:1043100000BFB44206DD20463446064628463D46E8
:10432000074600BF301B0FFA80F8781B002801DB1E
:10433000014600E0414209B20091404608EBD071CD
:1043400049100FFA81F9BD4202DA4FF0010A01E08B
:104350004FF0FF3A20E0BBF1000F06D0224629467D
:104360000F9B019800F030F805E02A4621460F9B8C
:10437000019800F029F80098A9EB00000FFA80F9E5
:10438000B9F1000F06DA05EB0A0005B209EB0800E7
:104390000FFA80F9601C04B2B442DCDD05B0BDE860
:1043A000F08F000070B505460C460648047300BF48
:1043B0000448806800F002000028F9D00220FFF7CE
:1043C00025FC70BD00300140F0B505461C460029B3
:1043D00005DB542903DA002A01DB302A00DBF0BDBB
:1043E000002905DB542903DA002A01DB302A00DB2F
:1043F000F5E724B3D61702EB5676F610C6EBC606E1
:1044000006EB460601EB8606204FBE5DD71702EB92
:104410005777FF10A2EBC70C012707FA0CF73E43B2
:10442000D71702EB5777FF10C7EBC70707EB470714
:1044300001EB8707DFF854C00CF8076023E0D617BC
:1044400002EB5676F610C6EBC60606EB460601EB07
:1044500086060E4FBE5DD71702EB5777FF10A2EB13
:10446000C70C012707FA0CF7BE43D71702EB5777A3
:10447000FF10C7EBC70707EB470701EB8707DFF81C
:104480000CC00CF8076000BFA9E700004C1000202A
:10449000024B1970024B1A70704700004400002054
:1044A0004500002010B52DED028BB0EE408AB0EE35
:1044B000480A00F01BF8BDEC028B10BD03B4019854
:1044C0004100009850EAC12018BF04204A0D18BFCF
:1044D00040F0010040F2FF72B2EB515F08BF40F0C4
:1044E0000200012808BF052002B0704710B52DED6D
:1044F000028BB1EEC08A18EE100A20F00040C0F125
:10450000FF40C00F0AD010EE100A20F00040C0F1AA
:10451000FF40C00F04BF0120FBF7B8FFB0EE480A10
:10452000BDEC028B10BD30380A2801D20120704743
:1045300000207047FFF712FBFFF70CFCC0200D496D
:104540000860FFF7C9FBFDF7B9FDFDF74BFCFFF76E
:1045500071FCFFF7C1FAFFF75BFCFEF7CFFF4FF4EA
:10456000FA60FFF723FBFDF789FD01E0FDF726FD6B
:10457000FCE700001804004810B500290AD00878AC
:10458000002807D005487844FCF752FE002801D0E7
:10459000002010BD0248784410BD00009E1D0000A0
:1045A000961D000010B500290AD00878002807D011
:1045B00005487844FCF73CFE002801D0002010BDDF
:1045C0000248784410BD00008E1D0000861D0000CA
:1045D0000808A0F500114FEA3101704743004FEA87
:1045E000D30C4FEA3C0C43401FBF40070CF1605115
:1045F00013F0FE4F70471CF0006F03D100200CF049
:10460000004170470CF0004343EA507010B540EA97
:10461000CC0000F03EF800BF000000924FEA00011D
:10462000FFF7D6BF4FF000414FF00000A1F5002189
:1046300070474FF07E5209E011F0004204D540422D
:10464000C1F1000138BF491E42F07E520B0002F159
:10465000706212BF20235FEA00017047B1FA81FC4B
:10466000A3EB0C0301FA0CF120FA03FC02EBC3529A
:10467000C3F1200341EA0C0110FA03FC5CEA416C2F
:1046800042EB112018BF5FF0806C28BF20F00100C2
:1046900070470EF1020E2EF0030E5EF8044B24421A
:1046A00004D44FEA4102B2F17F4F11D84FEA4003E0
:1046B000B3F17F4F0CD80ED14FEAD07CB2F17F4FCF
:1046C0000CEB4C0C0CF1020C08BF4CEBD17C04E061
:1046D0004FF0080C01E04FEAD17C0CEB4C0324FABC
:1046E00003F404F00704B4F1040C06D20EEB840CBE
:1046F000BDE810404CF0010C6047DFE80CF0070803
:1047000002024FF00040A0F5800010BD08464200B4
:1047100018BFD2F1807288BF00F0004010BD4FF08A
:104720004070E1EE100A7047FCF711BB00FAF0315F
:10473000BEAFA98023D8C314BE20654AA2A2A55348
:1047400000312419962740A056A940A55580B821CC
:104750003E4200D0C0C0122244C0726318A5C04CB3
:104760004444F072422223E0724260C5C01194AF0B
:104770008840721C1087C01110E8C5C0F84422118F
:10478000007252E8C5C07462E11180888C7110F02B
:10479000F0C348E11240403C856D5AAE909E30C255
:1047A000927A1840F99E99F03D08208103C0F46385
:1047B00018C7C0F88E88F0F88E88803D082345130E
:1047C000C08C63F8C620FE2492709CA98A4A20926D
:1047D0004938870F2D5B3260808E735BCE20388A1C
:1047E0000C18288E00E999E880388A0C18288E0267
:1047F00002E4A5CA4A607210E18BC0F90842108039
:104800008C6318C5C085149230C30088A6552AA5AC
:10481000311888CD230C3128C08D250C208200F85A
:10482000C44623E0EAAAC084442210D555C04AB049
:10483000F080E1797088E999E07888701179997051
:1048400079F8706BA4907CA4C745C093DB68BEC5A3
:10485000558088ACCCB0FEFA9A69A4F6DA74631776
:1048600000E999E88079997110EA806861E04BA4C9
:1048700098B6DE9A94C2009325B366409625909A26
:1048800094C21100F224F0559540555540D555C0BD
:104890000000010103000000010001070301F9000D
:1048A000020002030401F900030005070600F900F5
:1048B000080005090600F8000E0007070800F900C7
:1048C000150006070700F9001B0002020300F900AB
:1048D0001C0002090300F8001F0002090300F80091
:1048E000220002030501F900230005050600FA0075
:1048F000270002020300FF00280002010401FD005E
:10490000290002010300FF002A0004070500F90046
:104910002E0005070600F900330004070601F90020
:10492000370005070600F9003C0005070600F900FE
:10493000410005070600F900460005070600F900DA
:104940004B0005070600F900500005070600F900B6
:10495000550005070600F9005A0005070600F90092
:104960005F0001050301FB00600001060301FB007D
:10497000610003040601FB00630004030601FB0061
:10498000650004040601FB00670004070500F90048
:104990006B0007080900F900720006070700F9001C
:1049A000780004070701F9007C0006070700F900FA
:1049B000820005070801F900870004070601F900D5
:1049C0008B0004070601F9008F0006070800F900B4
:1049D000950005070801F9009A0001070401F90094
:1049E0009B0003070500F9009E0005070701F90079
:1049F000A30003070601F900A60007070901F90053
:104A0000AD0005070801F900B20007070800F9002A
:104A1000B90004070601F900BD0007090800F90004
:104A2000C50005070701F900CA0005070600F900DF
:104A3000CF0005070600F900D40005070801F900BA
:104A4000D90006070700F900DF0009070A00F9008E
:104A5000E70006070700F900ED0006070700F90068
:104A6000F30005070600F900F80002090401F90047
:104A7000FB0004070500F900FF0002090400F9002B
:104A8000020104030601F90004010401050001000C
:104A9000050101010501F900060104050500FB00FF
:104AA000090104070601F9000D0104050500FB00DA
:104AB000100104070600F900140104050600FB00BC
:104AC000170103070400F9001A0105070600FB009F
:104AD0001F0103070601F900220101070301F90084
:104AE000230102090300F900260104070601F90069
:104AF0002A0101070301F9002B0106050801FB004B
:104B00002F0103050601FB00310105050600FB002E
:104B1000350104070601FB00390104070600FB000C
:104B20003D0102050401FB003F0104050500FB00F7
:104B3000420103070400F900450103050601FB00DB
:104B4000470105050600FB004B0107050800FB00B7
:104B5000500104050600FB00530105070600FB0099
:104B6000580104050500FB005B0102090400F9007F
:104B70005E0102090300F900610102090400F90065
:104B80002C47000890480008207E0B0000DB6DB623
:104B90001BE0DEF7B9001B0D84CFF7F9B0D9FFFF9A
:104BA00033190D8004020787F6D361F07C1F05C21C
:104BB000697FF1F02030706F8C9989B8FB06600D29
:104BC000E1FE1B3333632E1C3C0FC18C300300F11C
:104BD0003F667CC79863FE3EF0FF804DEDB4936D59
:104BE0009B404C6663333333266C40255CEA901857
:104BF000181818FFFF181818FDA0FFFC060C3060ED
:104C00008306083060830E001E1F98CC7E1F0F871E
:104C1000C363B18FC3C01871E6C183060C1831FBA2
:104C2000F03CFEC6C6060E0C183070FEFF1E1F9824
:104C3000CC6030703C0643F19FC7C0070783C36355
:104C400033998DFFFF8180C0607EFD820FDFC183BD
:104C5000070FFBC00E1838707CFEC7C3C3C6FE3CEE
:104C6000FFFF06060C0C1818383070607CFEC6C6B4
:104C70007E7EC6C7C7C7FE7C3CFEC6C7C7FE7E0C8D
:104C80001C3830F0FC0FC0FC0FDE021CF38F07074E
:104C900083FFFC07FFE0830F0F1DEE207BF0C3189E
:104CA000C6080187180F03FC70643ACFB99B993985
:104CB000939B3DFECCC7023FE0F80E01C07C0D8106
:104CC000B8730C61FE7FCC1B83E030FE7FB8FC7EA6
:104CD00037F3FDC7E1F1FFDFC01F3FD85C0C0603CF
:104CE0000180E0705FE3E0FE1FF387706E0DC1F896
:104CF0003F06E0DC3BFE7F00FFFFE0E0E0FEFEE081
:104D0000E0E0FFFFFFFFE0E0E0FEFEE0E0E0E0E0EB
:104D10001F1FF60B80C030FC3F03E0D837FC7EE05D
:104D2000F83E0F83E0FFFFFF83E0F83E0F83FFFFB5
:104D3000FFFFF01C71C71C71C71C7FBCE1F8EE734C
:104D400098EE3F0FE3B8E738EE1B87E1C3870E1CF0
:104D50003870E1C3FFF0E03F01FC1FE0FD8FEC6F16
:104D60003679B3C71E38F0878030C0F83F0FE3FCB8
:104D7000F73CEF1FC3F0FC1F031F0FF983707C0784
:104D800080F01E03E0EC19FF0F80FE7FB8FC7E3F31
:104D90001BFDF8E070381C001F07FC60CE0EC06CD5
:104DA00006C06C06E0E60E7FC1FC00E007FE7FB89F
:104DB000DC6E37FBF1DCE673B8FC701E7F6260705E
:104DC0007E1F070343FF3CFFFFC30180C060301814
:104DD0000C06030180C1F07C1F07C1F07C1F07E1B6
:104DE000D867F878E07C1D8338631C630EE0D81B1D
:104DF00001E0380700E1C3B0E19870CE7CE736618E
:104E00009B30CDD87C7C1E3C0F1E0707018300E041
:104E1000EE38C61DC1F01C07C0F83B8631877070A4
:104E2000E0EC39C619C3B03E0380600C0180300647
:104E3000007FBFC0E0E0E070707038383FFFF0FFE7
:104E4000CCCCCCCCCCCCFFC0C1810306060C08185E
:104E5000302060F73333333333337F18382C6C66AC
:104E6000C7FFF0E33CFD1833EFF1FF7AC0C0C0C0CC
:104E7000DCFEC6C7C7C7C6FEDC3E7E6060E060627F
:104E80007F3C060C1837FFF1E3C78F1FF7601C7ECD
:104E9000637FFF60607F1E1CF33F7CC30C30C30C3C
:104EA0003F7F66667E38607E7FC3FF3CC183060D10
:104EB000DFF1E3C78F1E3C60FCFFFFC033303333AC
:104EC000333333FEC0C0C0C0C7CEDCF8F8DCCCCE74
:104ED000C7FFFFFFC0D9EFFEC67C67C67C67C67CF4
:104EE00067C670DDFF1E3C78F1E3C61E3F98CC7E9E
:104EF0003B1D8CFE1E00DCFEC6C7C7C7C6FEFCC03D
:104F0000C0C07FFF1E3C78F1FF760C1830DFF18CBB
:104F10006318C03CFD8387C1C1FE7830C33FFDC725
:104F20001C71C3CFC78F1E3C78F1FF76E3B198CCDC
:104F3000C361B0F0381800C71B3999CCCA66DB1EB4
:104F4000F0E3871C18C0E3330D8781C1E1D8CEE3BD
:104F500080E3B198CEC361A07038180C0C06007EB7
:104F6000FC30E186183FFE3B98C6319CE318C63101
:104F7000C7FFFFFFFFE78C6318C7398C631BDC009A
:104F800000000101050000000100030C0601F4000F
:104F9000060005050701F4000A00090C0A00F400E8
:104FA000180009100A00F2002A000C0C0E01F4008F
:104FB0003C000B0C0D01F4004D0002050401F4004F
:104FC0004F0003110501F200560004110500F20024
:104FD0005F0005060801F300630008090A01F600F6
:104FE0006C0002060501FD006E0004020701FA00D4
:104FF0006F0002030501FD007000070D0900F300BA
:105000007C00090C0A00F4008A00070C0A01F40075
:105010009500080C0A01F400A100090C0A00F40034
:10502000AF00090C0A00F400BD00070C0A01F400EF
:10503000C800080C0A01F400D400080C0A01F400AE
:10504000E000080C0A01F400EC00080C0A01F4006E
:10505000F80002090501F700FB00020C0501F7004A
:10506000FE0007080A01F600050107050A01F8001D
:105070000A0106080A02F6001001060C0801F400F5
:1050800019010C0E0F01F4002E010B0C0C00F400A2
:105090003F01090C0C01F4004D01090C0C01F40056
:1050A0005B010B0C0D01F4006C01080C0A01F4000B
:1050B0007801080C0A01F40084010A0C0D01F400C7
:1050C00093010A0C0D01F400A201030C0601F40087
:1050D000A701060C0800F400B0010A0C0C01F40052
:1050E000BF01070C0901F400CA010D0C1001F40006
:1050F000DE010A0C0D01F400ED010B0C0E01F400B1
:10510000FE01090C0B01F4000C020C0E0E01F40060
:105110002102090C0B01F4002F02080C0A00F40014
:105120003B02090C0B00F40049020A0C0D01F400CB
:1051300058020B0C0C00F4006902110C1200F40070
:1051400083020B0C0C00F40094020B0C0C00F40016
:10515000A502090C0B00F400B30204100601F300D1
:10516000BB02070D0900F300C70204100600F3009C
:10517000CF0208060A01F400D50206020901010067
:10518000D70204020700F400D80207090900F7005B
:10519000E002080D0A01F300ED0208090900F7001A
:1051A000F602070D0A01F300020308090A00F700DE
:1051B0000B03060C0700F4001403080C0A00F700A8
:1051C0002003070D0A01F3002C03020D0501F30073
:1051D0003003041005FFF3003803080D0A01F30043
:1051E0004503020D0501F30049030C090F01F70007
:1051F000570307090A01F7005F0309090A00F700CE
:105200006A03080C0A01F7007603070C0A01F7008D
:10521000810305090701F700870307090800F70064
:105220008F03060C0700F400980307090A01F70032
:10523000A00309090A00F700AB030D090E00F700EF
:10524000BA0309090A00F700C503090C0A00F700B0
:10525000D30307090800F700DB0305100600F3007D
:10526000E50302100501F300E90305100600F30051
:105270008C4B0008804F0008207E140000F7BDEF23
:105280007BDEF7BDE6000067BDE600F3BCEF3BCE7A
:10529000F3BCE6398C031C038E01C700E780F38062
:1052A00071C0FFFCFFFE7FFE071C039E03CE07FFBD
:1052B000E7FFF3FFF838E01CF01E700E38071C0300
:1052C0008E0001C0038007007F01FF87FF9F6E3CB7
:1052D000C07180E301EE03FC03FC03FE01FE01FE4E
:1052E000033C06380C7319EFB7DFFF1FFC0FE00714
:1052F000000E0018001E00F1FC0787F81C38E0F0D3
:10530000E1C783871C0E38E01FE7807F3C0078E010
:1053100000073C003DFC01EFF00738E038E381E393
:105320008E0F0E383838E1C0FF0F01FC7803C00340
:10533000E000FF001FF801E3C01C3C01C0001C009E
:1053400001E0000F0001F8383FC387BE38F1F78F46
:105350000FF0F07F0F03F0F03E0787F07FFF83FF31
:105360007C0FC3E0F7BDEF398C103871E38F1C3828
:10537000F1E3C70E1C3870E1C3C7870E1E1C3C3812
:10538000708041C387870E1E1C3870F1E3C78F1EE3
:105390003C78E1C38F1C38F1C382000C0181367F59
:1053A000E3F07E3FF36C0C0180038007000E001CCD
:1053B00000381FFFBFFF7FFE038007000E001C00A8
:1053C0003800700073CF9C31C630FEFEFE73CFBC38
:1053D0007000E00E01E01C01C03803807807007007
:1053E0000E00E00E01C01C03C0380380700700707F
:1053F0000E0007C01FE03FF07C78783CF03CF03CAA
:10540000F03CF01EF01EF01EF01EF01EF03CF03CD2
:10541000F03C783C7C783FF01FE007C007803E01FD
:10542000F80FE07F83FE0F7811E007801E007801FF
:10543000E007801E007801E007801E07FF9FFE7FC7
:10544000F80FC03FE0FFE3C3C703DE07800F001E75
:10545000007800F003C00F003C00F003C00F003CD8
:1054600000F7FBFFF7FFEFFFC007C03FE0FFE3E3FC
:10547000C783DE07800F001C007807E00F801FC085
:1054800007C007800F301EF03CF0F1FFE1FF80FC09
:10549000000078007C003E003F003F801DC01EE001
:1054A0001E701E380F1C0F0E0F07070387FFFBFF30
:1054B000FCFFFE0038001C000E00070003801FF8F0
:1054C0003FF0FFE1E0038007000E001FE07FF0FFE8
:1054D000F043E003E003C007800F001E2078E1F3F3
:1054E000FFC3FF01F80000F803C00F803E00F80181
:1054F000E007C01F003FE0FFF1FFE7C3EF03DE0757
:10550000BC07781EF03CF0F8FFE0FF80FC00FFFDD8
:10551000FFFBFFF001E007C00F003E007801F00341
:10552000C007801E003C00F001E007800F003C0037
:105530007801F003C0000FC03FE0FFE3C3C7838ED4
:10554000079C0F3C1C78787FE07F83FFC787DE07CE
:10555000BC0F781EF03DF0F9FFE1FF80FC000FC0AA
:105560003FE0FFE3C3CF03DE07BC0F781EF03DF042
:10557000F9FFE1FFC1FF001E007801E007C01F0036
:105580003C00F803E00071EF9E70000000071EF978
:10559000E700E7BDEE00000001CF7BCE6730006082
:1055A0000E03E0FC3F0FE0F807E01F80FE03E00E73
:1055B0000020FFF7FFBFFC0000007FFBFFDFFEC005
:1055C0000F00F807E01F807E03E0FC3F8FE0F80E3D
:1055D0000080001F07FCFFC61E01E01E01E03C0723
:1055E00080F01E01E00C00000000001C01E01E0124
:1055F000E01C0000FC0007FF001FFF007C0F01E023
:105600000F07000F1E0FEE387F8C71FF1DC3CE3BBE
:105610008F1C771C30EE38E19C71C738E79E39FF4C
:10562000F873F7E0F3C780E00001F00101F80F0123
:10563000FFFE00FFF0007F8001F0000FC0007E0041
:1056400007F0003FC001DE001E7000F3C00F1E0017
:10565000787803C3C03C1E01E0780FFFC0FFFE074F
:10566000FFF87C03C3C01F1E0079F003CF000F00BA
:10567000FFE0FFF8FFFCF03EF01EF01EF01EF03ED3
:10568000F03CFFF8FFF0FFFCF03EF01EF01EF01EB5
:10569000F01EF03EFFFCFFF8FFE001F801FF81FF84
:1056A000F0FFFE3F071F00878003E000F8003C008A
:1056B0000F0003C000F0003E00078001E0007C0204
:1056C0000FC1C1FFF83FFC03FC00FFE01FFF83FF99
:1056D000F8780F8F00F9E00F3C01F7801EF003DE31
:1056E000007BC00F7801EF003DE007BC01F7803C74
:1056F000F00F9E03E3FFF87FFE0FFE00FFFBFFEFBE
:10570000FFBC00F003C00F003C00F003FF8FFE3F22
:10571000F8F003C00F003C00F003C00FFFBFFEFF16
:10572000F8FFFBFFEFFFBC00F003C00F003C00F0F0
:1057300003C00FFF3FFCFFF3C00F003C00F003C0AD
:105740000F003C00F00001FC00FFE07FFE1FFFE3C4
:10575000F078F8021E0007C000F8001E0003C07FAA
:10576000780FEF01FDF0079E00F3C01E3C03C7E079
:10577000F87FFF03FFC01FE0F007DE00FBC01F78CB
:1057800003EF007DE00FBC01F7803EF007DFFFFB79
:10579000FFFF7FFFEF007DE00FBC01F7803EF007C9
:1057A000DE00FBC01F7803EF007CF7BDEF7BDEF768
:1057B000BDEF7BDEF7BDEF0003C0780F01E03C07D3
:1057C00080F01E03C0780F01E03C0780F01E07CF79
:1057D000F3FE7F8FC0F00F9E03E3C078781F0F07A2
:1057E000C1E0F03C3E078F80F3E01FF803FF007F2D
:1057F000F00F1F01E1F03C3E0783E0F03E1E03C3C3
:10580000C07C7807CF007CF007803C01E00F007877
:1058100003C01E00F007803C01E00F007803C01EAB
:1058200000F007803FFDFFEFFF00F8003EF8007E2C
:10583000FC007EFC00FEFE00FEFE01FEFF01FEFFFE
:1058400003DEF783DEF7879EF3C79EF3CF1EF1EFEB
:105850001EF1EE1EF0FE1EF0FC1EF07C1EF0781E07
:10586000F0101EF0001EF0001EF003DE007BE00FC3
:105870007E01EFE03DFE07BFC0F7FC1EF7C3DEFC74
:105880007BCF8F78F9EF0FBDE0FFBC1FF781FEF0F3
:105890001FDE01FBC03F7803EF003C01FC001FFC52
:1058A00001FFF80FFFF03F07E1F007C7801F3E0040
:1058B0003CF000FBC003EF000FBC003EF000FBE03B
:1058C00003C7801F1F007C3F07E0FFFF01FFF801B7
:1058D000FFC001FC00FFE0FFF8FFFCF07CF03EF0B1
:1058E0001EF01EF01EF01EF03EF07CFFF8FFF0FFF1
:1058F000C0F000F000F000F000F000F000F0000157
:10590000FC000FFE007FFE01FFFE03F07E0F803ED5
:105910001E007C7C0078F000F9E001F3C003E78012
:1059200007CF000F9F001E1E007C3E00F83F07E0DF
:105930007FFF807FFE003FFC001FFC00007C00001A
:105940007C00007EFFC07FF83FFE1E0F8F03C781E3
:10595000E3C0F1E078F03C783E3FFE1FFE0FFE070B
:105960008F83C3C1E1F0F078783E3C0F9E03CF01F6
:10597000F00FE03FF0FFE3C387001E003E007E0013
:105980007F80FFC0FFC07FC03F800F001F001C60F2
:1059900079E0F3FFC3FF01F800FFFFBFFFEFFFF85F
:1059A0000F8003E000F8003E000F8003E000F800E5
:1059B0003E000F8003E000F8003E000F8003E0008F
:1059C000F8003E000F8003E000F007BC01EF007B11
:1059D000C01EF007BC01EF007BC01EF007BC01EF4A
:1059E000007BC01EF007BC01EF00FBE03E7C1F1FE8
:1059F000FFC3FFE07FF007F000F001F7C00F1E00CB
:105A000078F007C3C03C1E03E0F81E03C0F01E0F71
:105A100080F87803C3C01E3C0079E003CF001EF07D
:105A2000007F8003FC000FC0007E0003E0000F0039
:105A300000F8078079E01E01E780F80F9F03F03C33
:105A40007C0FC0F0F03F03C3E1FE1F0F8778781E84
:105A50001CE1E078F3CF81F3CF3C03CE3CF00F782C
:105A60007BC03DE1FE00FF07F801FC0FE007F03FBF
:105A7000801F80FC003E01F000F807C003C01E003C
:105A8000F803E7C07C3E0783E0F81F0F00F1E00F4A
:105A9000BE007FC007FC003F8003F8003F8007FC8A
:105AA000007BC00F3E01F1F01E0F03E0F87C07C73A
:105AB000807CF803E0F803E7807C7C0783C0F83E35
:105AC0000F01E1F01F1E00F3C007BC007F8003F848
:105AD000003F0001F0001E0001E0001E0001E00098
