:020000040800F2
:1000000090090020350200083D0200083F02000868
:1000100041020008430200084502000800000000F9
:10002000000000000000000000000000470200087F
:1000300049020008000000004B0200084D020008C1
:100040004F0200084F0200084F0200084F0200084C
:100050004F0200084F0200084F020008E11A000892
:100060004F0200084F0200084F020008A5180008C0
:100070004F0200084F0200084F0200084F0200081C
:100080004F0200084F0200084F0200084F0200080C
:100090004F0200084F0200084F020008311B000801
:1000A0004F0200084F0200084F0200084F020008EC
:1000B000D51C00084F0200084F0200084F0200083C
:1000C0004F0200084F0200084F0200084F020008CC
:1000D0004F020008551F00084F0200084F02000899
:1000E000BD1900084F0200084F02000800F002F896
:1000F00000F090F80AA090E8000C82448344AAF132
:100100000107DA4501D100F085F8AFF2090EBAE82F
:100110000F0013F0010F18BFFB1A43F0010318473B
:100120007474000094740000103A24BF78C878C139
:10013000FAD8520724BF30C830C144BF04680C60ED
:10014000704700000023002400250026103A28BF35
:1001500078C1FBD8520728BF30C148BF0B60704739
:100160006E2900F06F81702900F0B982662905F0D0
:100170001E84652905F01B84672905F01884612910
:10018000AFF3008003681B0A28BF41F08001692992
:1001900000F01C81642900F01981752900F0168196
:1001A0006F2900F04682782900F08582E92900F065
:1001B000E181E42900F0DE81F52900F0DB81EF29FF
:1001C00000F04382F82900F084820368DB0928BF2D
:1001D00041F08001632900F03286732900F03786F0
:1001E000E32900F04286F32900F04786002070479B
:1001F0001FB500F099FE04000020002104F024FB4C
:10020000401C60600020002104F008FBE0601FBD7E
:1002100010B510BD00F05AFE1146FFF7E9FF04F0DB
:10022000B7FA00F033FF03B4FFF7F2FF03BC00F0AE
:1002300077FF00000948804709480047FEE7FEE7CE
:10024000FEE7FEE7FEE7FEE7FEE7FEE7FEE7FEE786
:1002500004480549054A064B70470000751C000814
:10026000ED00000890030020900900209005002078
:10027000900500207CB51D4616460C00009001D06C
:100280002044401E074B7B442A4669460190304675
:1002900000F0F1F805461CB10020694600F0FEF8B8
:1002A00028467CBD1D0200004FF000020429C0F06A
:1002B000128010F0030C00F0E382CCF1040CBCF1CE
:1002C000020F18BF00F8012BA8BF20F8022BA1EBEA
:1002D0000C0100F0D5BA5FEAC17C24BF00F8012B05
:1002E00000F8012B48BF00F8012B7047704770479A
:1002F000704710B500F0EAFA006810BD10B504466A
:1003000000F0E4FA046010BD70B504468569006829
:10031000C10601D5302600E02026C00707D070BDF9
:10032000D4E9012130469047206A401C20626D1EAE
:10033000F6D570BD70B5044685690078C00707D151
:1003400070BDD4E9012120209047206A401C206222
:100350006D1EF6D570BD09684A0501D540B27047DB
:10036000C905FCD500B2704709684A0501D5C0B27D
:100370007047C905FCD580B2704770B50C4605467C
:10038000012A05D02878800600D5EA69002302E01A
:10039000012305E05B1C934202D2E05C0028F9D106
:1003A000A869E618C01AA861286A18442862284675
:1003B000FFF7AAFF04E0D5E9012114F8010B9047EB
:1003C000B442F8D32846FFF7B5FF70BD2DE9F041E0
:1003D0000646002410687529314616A510D0FFF78F
:1003E000BAFF002802DA404213A507E031688A0705
:1003F00001D512A502E0490704D511A5012401E0A9
:10040000FFF7B2FF00210A2206F1240709E0B0FB42
:10041000F2FCB0FBF2F302FB1C00303078541846BB
:10042000491C0028F3D123462A463046BDE8F04156
:1004300000F095BA000000002D0000002B00000025
:100440002000000011680268006A530501D5087099
:100450000AE0D30501D5088006E0130603D5C217CC
:10046000C1E9000200E008600120704701694A1CF0
:1004700002610878704700B58FB0CDE901310021E5
:10048000059105497944CDE903101146684600F00D
:1004900031F90FB000BD0000E5FFFFFF0A6802F868
:1004A000010B0A607047D1E900239A4202D2531C23
:1004B0000B601070704700002DE9FF5F15468A46FB
:1004C0000446DFF8AC80F8440027D8E900103E4627
:1004D000CDE9001010E03AF816106A4602A800F0C4
:1004E000D0FC411C07D02178890603D5E269391870
:1004F00091420DD80744761C2078800602D5E06929
:10050000B84205DDAE42E6DB3AF816000028E2D13B
:10051000A069C01BA0612046FFF7F6FED8E90010D5
:10052000CDE90010002017E03AF818106A4602A83A
:1005300000F0A7FCB0F1FF3F81460BD000250DF184
:10054000080B05E0D4E901211BF8050090476D1C5C
:100550004D45F7D308F10100B0428046E4DB206A44
:10056000384420622046FFF7E5FEBDE8FF9F00000B
:100570009E6F00002DE9F0418046D21D22F0070257
:100580000025D2E90002F52915A614D0011E72F14A
:10059000000106DA0023D0EB030063EB020211A690
:1005A00008E0D8F800108B0701D50FA602E0490734
:1005B00001D50EA601251146002408F1240704E008
:1005C00000F088F930323A55641C50EA0102F7D144
:1005D0002B46324621464046BDE8F04100F0BFB907
:1005E000000000002D0000002B0000002000000093
:1005F00030B4002100F1240408E002F00705D2081D
:10060000303542EA4372DB086554491C52EA03055F
:10061000F3D10468002310A2250707D5A40600D44F
:1006200021B1C46901230DA2641EC46130BC00F075
:1006300096B910B5044621461068FFF795FE0246AC
:100640002046BDE810400023D2E7D21D22F007016A
:10065000D1E90023CCE700000000000030000000DA
:10066000F0B40D460188090502D5214C7C4402E016
:100670001F4C7C440E34002100F1240608E002F0F7
:100680000F071209E75D42EA03721B097754491C00
:1006900052EA0307F3D102780023120704D5702D24
:1006A00006D009B1022311342246F0BC00F057B93C
:1006B00001231034F8E770B504460D462146106852
:1006C000FFF752FE024629462046BDE8704000234F
:1006D000C6E7D21D22F00703D3E90023C0E7036871
:1006E000126843F0200303600823C3610023B7E7C7
:1006F000006E00002DE9F05F894604464FF0000AC5
:10070000DFF874B1FB44C0F820A02046E1688847B8
:10071000002874D0252806D0D4E901219047206A0A
:10072000401C2062F1E700265F462046E1688847CA
:100730002028054607DB312D05D2781910F8200C4A
:1007400008B10643F1E7B00701D526F00406C4F866
:100750001CA00027C4F818A02A2D09D0284604F0B0
:100760000FF838B304EB8708303DC8F8185019E08B
:1007700059F8041B204604EB87029161E168884721
:10078000012F054618D1E069002820DA26F020065E
:100790001DE0D8F8180000EB800005EB4000303871
:1007A000C8F818002046E1688847054603F0E8FFCE
:1007B0000028EED1012F0AD02E2D08D12046E16865
:1007C00088477F1C0546022F46F02006C4DBA0693F
:1007D000002803DA404246F00106A061F00701D08C
:1007E00026F010066C2D0BD0682D09D04C2D39D079
:1007F0006A2D35D0742D35D07A2D33D016E038E0FF
:10080000E1682F4620468847B842054609D16C2F3B
:1008100026D04FF48060E1680643204688470546AD
:1008200004E06C2F1AD04FF4807006430DB3A5F18D
:100830004100192802D8203546F400664A46294668
:10084000204626604E46FFF78BFC80B101280BD076
:10085000F61D26F0070000F1080956E74020E4E7FE
:100860008020D8E70020D6E706F104094DE72846A6
:1008700052E7206ABDE8F09F906D00004FF0000243
:1008800000B5134694469646203922BFA0E80C5086
:10089000A0E80C50B1F12001BFF4F7AF090728BF61
:1008A000A0E80C5048BF0CC05DF804EB890028BFDD
:1008B00040F8042B08BF704748BF20F8022B11F006
:1008C000804F18BF00F8012B7047000000487047A8
:1008D0002C03002030B5B0F10A024FEA900E71F1FE
:1008E00000034EEA817EB0EB0E0061EB91014FEA0E
:1008F000101E4EEA017E10EB0E0041EB11114FEA83
:10090000102E4EEA016E10EB0E0041EB11214FEA62
:10091000104E4EEA014E10EB0E0041EB1141401813
:1009200041F100014FEAD00040EA41704FEAD101A5
:1009300010EB80054FEA810444EA907444EB010413
:100940006D1944EB0404521BA3414FF0000348BF50
:100950000A3200D530BD401C41F1000130BD2DE907
:10096000F0470D4699469246044600F12408016876
:10097000880604D5E06921F01001216000E0012023
:10098000A84201DD471B00E00027A1697A1902EBAC
:100990000900081AA0612078C00602D42046FFF79B
:1009A000B3FC002608E0D4E901211AF806009047BC
:1009B000206A401C761C20624E45F4DB2078C0067D
:1009C0000AD52046FFF7A0FC06E0D4E9012130203B
:1009D0009047206A401C2062381EA7F10107F4DC12
:1009E00007E0D4E9012118F805009047206A401C6F
:1009F0002062281EA5F10105F3DC2046FFF79AFCD2
:100A00002078000602D50220BDE8F0870120FBE730
:100A100070472DE9FF4F0C461E464FF0FF378BB055
:100A2000D2E90001DDF860800A908A46C1F30A55D8
:100A300005B93D46002108464FF00000BAF1000F0D
:100A400000F4400005DA00EB80004FF4400101EAB9
:100A500050004FEA9059B9F1010F00DDB9460A98EC
:100A600050EA4A000ED044F61050A5F2FF35454337
:100A70002F14B8F1000F1ED07542291E1EDDC9F1DA
:100A800000021CE0B8F1010F4FF0000001D030214E
:100A900003E0F24305E02154401CB042FBDB30464A
:100AA0000022002121540B99C1F80880C1E90020DF
:100AB0000FB0BDE8F08FBD1B6D1CDEE74A4600DAC3
:100AC000694206A800F074FA06AB93E8070003AB8E
:100AD00083E8070050460A9900F029FB8DE80700DB
:100AE000A0F500501F3800900398002D09DD42F258
:100AF0001F014A46084403A90390684600F088FD98
:100B000008E0A0F500504A461F3803A90390684644
:100B100000F092FD8DE807000004000C03D04FF0B8
:100B2000FF30410800E01046B8F1000F03D000226A
:100B3000009215461EE0751E05D4FFF7CBFE30323D
:100B400062556D1EF9D5B3460122084302D000223A
:100B50007F1C04E02078302801D100227F1E002A6B
:100B6000099786D01DE0112D07DAFFF7B3FE30326A
:100B700062556D1C50EA0102F5D1084302D000987D
:100B8000C8B10EE00021681E05E0235C625C63547E
:100B90002254401E491C8142F7DBAB46A81B401E75
:100BA0000990002004F80B000B98099AC0F80880FF
:100BB000C0E9002B7CE711264FF0000859E72DE92A
:100BC000F04F88460446D21D22F0070191B0D1E9CA
:100BD0000001CDE90A0103F0BFFD02460B98C00FEA
:100BE00001D02D2007E02068810701D52B2002E0ED
:100BF000202101EAC000032A099001D0072A05DB61
:100C000003464146204600F093F90BE12078800628
:100C100001D5E06900E00620B8F1650F814606D0F5
:100C2000B8F1660F18D0B8F1670F70D131E000202D
:100C3000B9F1110F009001DB112301E009F101036B
:100C40000AAA01A90CA8FFF7E4FEDDE90C70002652
:100C500009F10105834647E001204B4600904FF023
:100C600000470AAA01A90CA8FFF7D3FEDDE90DB0E1
:100C70000C995D46002610B909F101000D18B9EB79
:100C8000050003D4C0F1FF3609F10105A5EB090009
:100C90002BE0B9F1010F01DA4FF001090020B9F1A1
:100CA000110F0090484601DD112300E003460AAA17
:100CB00001A90CA8FFF7ADFEDDE90C704D4600263A
:100CC0008346207800070AD4AB4500DA5D4601A8C8
:100CD000012D04DD411911F8011C302907D04F45C1
:100CE00002DA17F1040F04DA012082460FE06D1ECC
:100CF000EEE7002F02DCED1B3E4403E0781CA84227
:100D000000DD7D1CB81B00F1010A4FF00047207880
:100D1000000703D4AA4501DB4FF0FF3A0021B7F1E9
:100D2000004F0DF143088DF8431024D002202B23EF
:100D3000002F01DA7F422D230A21021EA0F10100BB
:100D400000DC5FB197FBF1FC97FBF1F201FB1C7C2F
:100D500017460CF1300C08F801CDEEE7A8F10100C0
:100D600003702188090501D5452100E06521A0F126
:100D7000010800F8011C09980FA9A1EB0807FF1D45
:100D800000B10120411901EBEA70A1693844081A49
:100D9000401EA0612078C00602D42046FFF7B4FAB6
:100DA000099828B1D4E901219047206A401C2062AB
:100DB0002078C00622D52046FFF7A6FA1EE0002EB6
:100DC00004DBB34502DD01A8805D00E03020D4E9FA
:100DD00001219047206A401C2062761CAAF1010084
:100DE0005FEA000A0AD100F09FF8C0680168405C21
:100DF000D4E901219047206A401C2062281EA5F1F9
:100E00000105DCDC07E0D4E9012118F8010B90476B
:100E1000206A401C2062381EA7F10107F3DC20463F
:100E2000FFF788FA032011B043E610B5436913B108
:100E3000AFF3008001E0FFF7A0FA012010BD1278A7
:100E400000F124010A7000224A700122EDE71168C6
:100E50004FF0FF32E9E710B5436913B1AFF30080FB
:100E600001E0FFF729FB012010BD128800F12401E9
:100E700082840022C2840122EDE711684FF0FF3224
:100E8000E9E770B516460C46054600F045F80368DC
:100E900093F80101012806D0FF2C0FD8185D68B126
:100EA00001202C7070BDD3F807013246214603F2B1
:100EB000071303442846BDE8704018474FF0FF3041
:100EC00070BD0000004870472C0300207546FFF7F6
:100ED000F9FFAE4605006946534620F007008546F7
:100EE00018B020B5FFF7B4F9BDE820404FF0000678
:100EF0004FF000074FF000084FF0000B21F0070102
:100F0000AC46ACE8C009ACE8C009ACE8C009ACE844
:100F1000C0098D467047000010B500F005F8001DAF
:100F200010BD00BF25390000004870474C03002069
:100F30002DE9F0411F46044603260168072A01F403
:100F4000006004DB08B116A505E016A503E008B1B2
:100F500015A500E015A521F010002060A069C01EB5
:100F6000A0610FB1401EA0612046FFF7CDF94FB13F
:100F7000D4E9012138469047206A401C2062C01CF9
:100F8000206206E0206AFAE7D4E9012115F8010B96
:100F90009047761EF8D22046FFF7CCF9BDE8F081E5
:100FA0004E414E006E616E00494E4600696E66000D
:100FB0002DE9F047814616468AB0334878440DC87B
:100FC0008DE80D0030487844801C03AC0DC884E8DF
:100FD0000D0041F69B300844372190FBF1F290FB65
:100FE000F1F5A5F1800501FB12041B3C02D564421A
:100FF000012000E00020DFF890A080460027FA449E
:10100000AAF1BE0A0DE0E00709D03246684607EBB8
:1010100047010AEB810100F00FFB8DE80700641027
:101020007F1C002CEFD1184F7F44AC3F18E0E8073D
:1010300014D007EB04100DF1180A90E80E008AE8AE
:101040000E00C068F04201D198190890324606A9F6
:1010500003A800F0F1FA03AB83E807006D10641CED
:10106000002DE4D132466946B8F1000F03A802D042
:1010700000F0CEFA01E000F0DFFAC9E90001C9F89A
:1010800008200AB0BDE8F0876865000010B5044686
:10109000AFF300802046BDE81040FFF7C4B8000061
:1010A0004FF0013C50F8042B51F8043B9A4221D1F7
:1010B000A2EB0C03934313EACC1317D150F8042B83
:1010C00051F8043B9A4215D1A2EB0C03934313EA67
:1010D000CC130BD150F8042B51F8043B9A4209D1A0
:1010E000A2EB0C03934313EACC13DBD04FF00000C8
:1010F000704700BFD01A01BAB1FA81F101F01801AE
:1011000022FA01F0CB40C1F12001DBB2C0B2C01A1B
:101110002CFA01F3D11A914311EAC311E6D17047B9
:1011200001491820ABBEFEE72600020070475FEAC7
:10113000400C08BF91F0000F4FEA8C234FEAC12208
:1011400043EA51514FEA1C5018BF00F5F0404FEAF6
:10115000300018BF41F000415FEA6C5C00F029806C
:10116000BCF1FF3F08BF40F080407047130C06BF42
:1011700012044FF0100C4FF0000C130E04BF1202BB
:101180000CF1080C130F04BF12010CF1040C930FA7
:1011900004BF92000CF1020CD30F04BF52000CF1FB
:1011A000010C11464FF00002A0F11F00A0EB0C0053
:1011B000704711F0004F08BF704731F000413FF415
:1011C000D5AF0B0C06BF09044FF0100C4FF0000C0C
:1011D0000B0E04BF09020CF1080C0B0F04BF090130
:1011E0000CF1040C8B0F04BF89000CF1020CCB0F27
:1011F00004BF49000CF1010CCCF12003A0EB0C0062
:1012000022FA03F302FA0CF241EA030100F10100B1
:10121000704720F07F4C80EA030023F07F47ACEB5F
:10122000070303F57C5300F0004003F1FF032DE9B1
:1012300080494FEA154B09B44FEA144325EA0B4E97
:1012400024EA03480FF2042606EB132749083E78E8
:101250005FEA320203FB0667C7F5000707FB06F6E5
:101260004FEA54374FEAD64606F1020607FB066CF2
:10127000CCF1005C4FEA1C472CEA074C07FB06F454
:101280000CFB06F504EB15464FEA961634BF00201A
:101290004FF000404FEAD13706FB07FC4FEA1C4CE9
:1012A0000CFB0BF7D21B03FB0CF761EB07010CFBEC
:1012B0000EF7B0EB074072EB17420CFB08F734BF98
:1012C000A2EB0742B2EB074261EB17414FEA0C4435
:1012D0004FEA910706FB07FC4FEA1C4C0CFB0BF78F
:1012E000B0EBC74072EB573203FB0CF734BFA2EBF5
:1012F000C742B2EBC74261EB57310CFB0EF7B0EBC4
:10130000C70072EB57720CFB08F734BFA2EBC702A1
:10131000B2EBC70261EB5771039F4FEA816141EA6B
:10132000921104EBCC044FEAD1374FEA826206FBFC
:1013300007FC42EA90124FEA80604FEA1C4C0CFB1B
:101340000BF7D21B03FB0CF761EB07010CFB0EF74D
:10135000B0EB074072EB17420CFB08F734BFA2EB6F
:101360000742B2EB074261EB17414FEA8C554FEA57
:10137000910704EB9C2406FB07FC4FEA1C4C0CFB7A
:101380000BF7B0EBC74072EB573203FB0CF734BFDF
:10139000A2EBC742B2EBC74261EB57310CFB0EF731
:1013A000B0EBC70072EB57720CFB08F734BFA2EB2F
:1013B000C702B2EBC70261EB577115EB4C254FEA40
:1013C000816141EA92114FEA82624FEAD13742EAE3
:1013D000901206FB07FC44F100044FEA80604FEADC
:1013E0001C4C0CFB0BF7D21B03FB0CF761EB07014A
:1013F0000CFB0EF7B0EB074072EB17420CFB08F743
:1014000034BFA2EB0742B2EB074261EB174115EB89
:101410001C154FEA813141EA92414FEA823242EA99
:1014200090424FEA80304FEA0C7644F1000448EADB
:1014300003434EEA0B484FF0000EB2EB080C71EB81
:10144000030724BF624639464EEB0E0E4FF0000BE9
:101450000018524149414BEB0B0BB2EB080C71EBFE
:1014600003077BF1000B24BF624639464EEB0E0E9C
:101470004FF0000B0018524149414BEB0B0BB2EB04
:10148000080C71EB03077BF1000B24BF6246394661
:101490004EEB0E0E51EA020718BF46F0010616EB9E
:1014A0000E7655F1000254F1000103D5BDE8890123
:1014B000BDE80088BDE88901BDE80048B619524181
:1014C00041EB0101A3F10103704780807F7E7D7CA9
:1014D0007B7A7978777676757473727171706F6EC6
:1014E0006E6D6C6C6B6A6A69686867666665646471
:1014F000636362616160605F5F5E5E5D5D5C5C5BFB
:101500005B5A5A5959585857575656555555545469
:10151000535352525251515050504F4F4F4E4E4DC7
:101520004D4D4C4C4C4B4B4B4A4A4A494949484813
:101530004847474747464646454545444444444353
:1015400043434342424242414141002B26D477006B
:1015500021D01CB54FEA370703B44FF010004FF00D
:1015600010014FF000000FBCBDE810400BF1010B63
:10157000BBF1010F08BF5FEA170722BF12F101029A
:1015800011F101014FF0004143F1000300F0004070
:1015900043EA00007047F9D35708DAE746EA0646FF
:1015A00013F1400F4FEA16461FDD13F1200FDFBF86
:1015B00016430A46002120335B42C8D0C3F12007FE
:1015C00046EA064602FA07F74FEA164646EA0706D3
:1015D000C3F1200722FA03F201FA07F721FA03F117
:1015E0004FF0000342EA0702B1E746EA020646EA84
:1015F00006464FEA164646EA0106BCBF46EA0646DC
:10160000360C4FF000034FF000024FF000019EE750
:101610002DE9C048934630B491E8380007C831EA54
:10162000400C48BF34EA430C03D5FFF7F2FDFFF747
:101630008CFFF0BCBDE800882DE9C048934630B46B
:1016400091E8380007C810F0804F08BF13F0804FB2
:1016500003D100F005F8FFF778FFF0BCBDE8008883
:1016600020F07F4780EA030023F07F4C07EB0C0358
:10167000A3F57C5300F00040A3F1FE0392F0000FAD
:1016800000F0B38095F0000F00F077802DE901495C
:101690004FEA11404FEA144621EA004800FB06FCDD
:1016A00024EA064708FB06F607FB08F800FB07F7E5
:1016B00018EB06484CEB164C4FEA124B18EB074858
:1016C0004FEA15464CEB174022EA0B4E0BFB06FC8B
:1016D00025EA06470EFB06F607FB0EFE0BFB07F797
:1016E0001EEB064E4CEB164C4FF000061EEB074E61
:1016F0004CEB174B18EB0B0840F1000018EB0E0BEE
:1017000058EB000840F100008F1A4FF000013CBF79
:10171000C943661B14BFB5EB040C00213CBFC94391
:10172000F61B4FEA17444EEA8E0E27EA04454FEAAD
:101730001C4704FB07622CEA074C05FB07F70CFB70
:1017400005F604FB0CFC16EB074642EB174216EBC2
:101750000C4642EB1C421BEB060658EB02024141D1
:1017600046EA9E0601D5BDE80189B619524141EB12
:101770000101A3F10103BDE801894FEA14454FEAD5
:10178000114724EA054621EA074C05FB07F406FB4E
:1017900007F70CFB06F105FB0CFC11EB074144EBD2
:1017A00017444FEA124711EB0C4144EB1C4422EA68
:1017B000074C05FB07F206FB07F70CFB06F605FBDB
:1017C0000CFC16EB074642EB174216EB0C4642EBBD
:1017D0001C456A1854F1000148BF7047B6195241C0
:1017E00041EB0101A3F10103704795F0000F37D0E1
:1017F0004FEA11424FEA144721EA024624EA074C15
:1018000002FB07F106FB07F70CFB06F402FB0CFCDE
:1018100014EB074441EB17414FEA154714EB0C4416
:1018200041EB1C4125EA074C02FB07F506FB07F7D5
:101830000CFB06F602FB0CFC16EB074645EB1745C6
:1018400016EB0C4645EB1C42121951F1000148BF42
:101850007047B619524141EB0101A3F101037047F2
:101860004FEA14454FEA114724EA054621EA074C9E
:1018700005FB07F106FB07F70CFB06F24FF000062D
:1018800005FB0CFC12EB074241EB174112EB0C423B
:1018900051EB1C4148BF7047921841EB0101A3F185
:1018A0000103704770B53D48006800F0020002284F
:1018B00073D13B4B1B883A4CE4882344384CA489B1
:1018C0002344374C648A234418B2354B9B88344CEC
:1018D00064892344324C248A2344314CE48A2344CF
:1018E00019B22F4B5B882E4C248923442C4CE4895D
:1018F00023442B4CA48A23441AB22A4B1D685B68EC
:10190000AD1843EBE273274C25606360A0EB020344
:1019100018B2A1EB020319B203464FEAE07400EBE0
:1019200094744FEAA4000B464FEAE17401EB9474FF
:101930004FEAA4011C4B1D685B682D1843EBE07354
:10194000194C2560636000FB00F34FEAE374174E07
:10195000356876685B197441144D2B606C60144BCC
:101960001D685B686D1843EBE173114C2560636083
:1019700001FB01F34FEAE3740E4E356876685B199C
:1019800074410C4D2B606C600B4B1B885B1C0A4C2C
:1019900023800223014C636000BF70BD0000024041
:1019A0001403002078000020580000206800002068
:1019B00060000020700000208000002000B540483A
:1019C000006800F4804060B13E48006800F4804048
:1019D000002871D13C48007880F001003A49087035
:1019E0006AE03748006800F40040002864D03548B9
:1019F000006800F4004000285ED13448007868B9DF
:101A000033480078401C32490870084600780328A3
:101A100001DD0020087001F051F94DE02B480078FD
:101A2000012808D12B48007880F00100294908706E
:101A300001F02EF940E02548007802283CD12448E6
:101A4000007808B9012000E000202249097881F0DF
:101A50000101084018B101201D4908702CE01C4804
:101A60000078012800D100E000201A49097881F0AF
:101A70000101084048B100201549087001201549AE
:101A8000087010201449086016E01148007808B961
:101A9000012000E000200F490978084018B101201A
:101AA0000B49087008E000200949087009490870CE
:101AB0004FF480100849086008480149086000BDDB
:101AC00014040140080C01404E0000204C0000208E
:101AD000510000205000002010080140FFFF0300CB
:101AE0000E48006800F00200A0B10D48006800F048
:101AF000020078B90B48007880F0010009490870AD
:101B00000846007818B108200749086002E008205C
:101B10000549086005480149086070471404014000
:101B2000080C01404F00002010080140FFFF030097
:101B30001048006800F48070B8B10F48006800F4E5
:101B4000807090B90D480078401C0C490870012045
:101B50000B49087009480078062802DB0020074975
:101B6000087006480078074908800748014908605E
:101B70007047000014040140080801404C00002098
:101B80004D000020086C0040FFFF030010B500F07E
:101B900001F810BD0CB5002001900090334800689A
:101BA00040F480303149086000BF3048006800F4DC
:101BB000003000900198401C0190009818B90198DD
:101BC000B0F5A06FF1D12948006800F4003010B1E1
:101BD0000120009001E0002000900098012843D1EE
:101BE0002348006840F0100021490860084600685A
:101BF00020F0030008600846006840F0020008601A
:101C00001A484068194948600846406848600846D4
:101C1000406840F4806048600846406820F47C10CA
:101C200048600846406840F4E8104860084600688C
:101C300040F08070086000BF0C48006800F0007041
:101C40000028F9D00948406820F00300074948609F
:101C50000846406840F00200486000BF0348406802
:101C600000F00C000828F9D10CBD00000010024063
:101C70000020024010B51348006840F001001149EF
:101C8000086008464068104908400E494860084608
:101C900000680E4908400B4908600846006820F4B7
:101CA000802008600846406820F4FE0048604FF439
:101CB0001F008860FFF76AFF4FF00060044908606A
:101CC00010BD0000001002400000FFF8FFFFF6FE0C
:101CD00008ED00E02DE9F04F87B04FF08040008A1A
:101CE00000F0020002287AD100204FF08041888461
:101CF000844800888449088084488549086085486C
:101D0000007800286DD08449844A127851F8220066
:101D100003F07EFACDE902017D48006803F078FA0D
:101D2000824600227E4B02F08BFE06460F46764826
:101D3000008803F0F9FB83467A490868496803F094
:101D4000C6FB5946019003F0FDFA824603F060FAA3
:101D5000804632463B4603F031F80446DDE9022373
:101D600003F02CF8CDE9040102F084FD6E4908600F
:101D70006E496F4A127851F8220003F049FA04467E
:101D80000D466348006803F043FA82460022644B24
:101D900002F056FE06460F465B48008803F0C4FB7F
:101DA000834664490868496803F091FB59460190ED
:101DB00003F0C8FA824603F02BFA804632463B46CF
:101DC00002F0FCFF22462B46CDE9020102F0F6FFAD
:101DD000CDE9040102F04EFD5749086071E08DE045
:101DE000FFE74D494D4A127851F8220003F010FAEE
:101DF00004460D464648006803F00AFA8046002271
:101E0000474B02F01DFECDE904013F48008803F076
:101E10008BFB4A4901900868496803F055FB009024
:101E2000019903F08FFA814602F090FC804603F09E
:101E3000EFF9CDE90201DDE9042302F0BFFF064618
:101E400022462B4602F0BAFF824602F013FD3C49BF
:101E500008603649364A127851F8220003F0D8F962
:101E6000CDE904012A48006803F0D2F906460022B1
:101E70002B4B02F0E5FD04460D462348008803F095
:101E800053FB304901900868496803F01DFB00903E
:101E9000019903F057FA074602F058FC064603F092
:101EA000B7F9804622462B4602F088FFCDE90201B1
:101EB000DDE9042302F082FF824602F0DBFC2249C6
:101EC00008600021174A116051600020194A106013
:101ED00050601A4A116051601A4A116051601B4AE1
:101EE0001160516007490880012019490870800776
:101EF000008A20F002004FF08041088207B0BDE860
:101F0000F08F000080000020980000200612204082
:101F1000840000204E000020507400085100002072
:101F20000000B040580000208800002060740008C5
:101F30005000002060000020900000206800002079
:101F40008C00002070000020940000207800002009
:101F50004D0000200F48008800F04000402818D1B4
:101F60000D480E490978405C50B10C490878411C75
:101F70000A4A11700849095C064A121D118002E0E4
:101F80000020074908700348008820F040000149FC
:101F900008807047003801409C00002007000020A6
:101FA000080000200B20002809DB00F01F0201219F
:101FB00091404209920002F1E022C2F8001100BFF4
:101FC0000C201249C8600846806840F00100886013
:101FD0000F48006840F001000D490860084600689D
:101FE00040F0080008600846006840F004000860FF
:101FF00000BF0748006800F004000428F9D0044836
:10200000006840F00100024908607047000002408B
:102010000824014010B5082021490860214802F039
:10202000D7F821491F4802F00BFA2048204A1278BD
:1020300050F82210142300221A4802F0EFF91D482C
:102040001B4A127850F8221023230022154802F070
:10205000E5F9144802F0B2F94FF47A7001F076FE17
:1020600008200F49086012480078062816D2DFE8D9
:1020700000F00306090C0F1200F0FAFA0EE000F06F
:1020800013FA0BE000F0DEFC08E000F0C1F805E018
:1020900000F0B8FE02E000F07BFC00BF00BF10BD06
:1020A0001008014018000020F86400081C000020FF
:1020B0004C0000203400002010B5014600BF134A38
:1020C0001278002AFBD1124B1A70501E02E00A5CF3
:1020D000104B1A54421C12B210468A5C002AF6D1E8
:1020E00004E000220B4B1A54421C10B28028F8DB8B
:1020F0000122064B1A70064B1A78531C044C2370AD
:10210000044B9B5C044C238010BD000008000020A1
:10211000070000209C000020043801400348C069EB
:1021200040F004000149C8617047000000100240FF
:1021300010B51448C06940F001001249C86141F669
:102140001F40890408850846808A40F00100888283
:10215000002088840846808940F00200888141F28E
:102160008830888601211C2000F0DCFD1C2000F056
:1021700035F84FF08040008840F001004FF080417A
:10218000088010BD001002400FB408B500BF0F4812
:1021900000780028FBD103A800907F210C48009B09
:1021A000029AFEF767F800200090012007490870A6
:1021B0000020084908700878411C064A117004493B
:1021C000095C054A118001B05DF814FB080000208D
:1021D0009C0000200700002004380140002809DB93
:1021E00000F01F02012191404209920002F1E02219
:1021F000C2F80011704700000448008820F0010078
:1022000002490880014824300088704700080040D7
:102210002DE9FE4F4FF000708F4908608E480C3852
:10222000006820F0C0008C490C390860084600683E
:1022300040F0300008600420884908608748103862
:10224000006820F44060854910390860084600683D
:1022500040F44070086080481038006820F07040FA
:102260007D4910390860DBE07D4801F0B1FF7D4811
:10227000006802F0CDFF074600227B4B02F0E0FB36
:1022800005460E460821032000F044FB074602F0F5
:1022900046FD2A463346CDE9000102F08FFD824615
:1022A00002F0E8FA0290029802F0B2FF05466F4A87
:1022B0006F4B02F047FD02D2002002900BE0029823
:1022C00002F0A6FF07466B4A6B4B02F005FB054682
:1022D00002F0D0FA0290029802F09AFF074600221C
:1022E000664B02F0ADFB054602F0C4FA04462046F8
:1022F00002F08EFF05460E46029802F089FF8246E4
:1023000000225F4B02F08EFE07462A46334602F05B
:1023100097FBCDE9000102F0ADFA814659494846E4
:1023200003F016F904D24FF480504B49086003E0E3
:102330004FF08050484908600021484603F008F9F2
:1023400001D24FF000095049454802F079F81622B1
:102350000021434802F0F0F9484602F059FF0546D3
:102360002A460B4649A13E4802F002F849493C483A
:1023700002F066F81F23332247A1394802F04EF8D5
:1023800028223321364802F0D7F9029802F040FFA4
:10239000054600223A4B02F045FE07463A460B46F8
:1023A0003EA12F4801F0E4FF302200212C4802F02A
:1023B000C3F92C48006802F02BFF05462A460B465D
:1023C00036A1274801F0D4FF30223321244802F0FF
:1023D000B3F92448006802F01BFF07460022224B95
:1023E00002F02EFB05460E460421002000F092FA72
:1023F0004700384602F07CFC82462A46334602F00B
:10240000DDFC02460B46CDE9000124A1144801F091
:10241000AFFF134801F0D2FF642001F097FC00BF2A
:102420002048007803283FF41FAF4FF080500A493E
:10243000086009480C38006820F0700006490C3923
:1024400008600846006840F08000086008060249FD
:102450000860BDE8FE8F000010080140100C01402C
:1024600018000020840000200000B04079E92631E7
:1024700008AC7C3F9A9999999999A93F0040854069
:102480000000F43F00004842447400082530352E17
:1024900030660000085E00084F484D0025342E329B
:1024A000662056004C0000202DE9F84FA2E0554868
:1024B00001F08EFE5449534801F0C2FF53480078A2
:1024C00010B15348006801E052480068009052483B
:1024D000007898B1162200214A4802F02DF90098A0
:1024E00002F096FE044622460B464CA1454801F0F8
:1024F0003FFF4FF080504B49086012E01622002148
:10250000404802F019F9009802F082FE0446224683
:102510000B4642A13B4801F02BFF4FF08050414950
:1025200008604149374801F08BFF3848007808B10E
:102530003EA000E03FA001461F232C22314801F0BD
:102540006DFF3548007808B13CA000E03DA0014691
:1025500028232E222B4801F061FF30220021294838
:1025600002F0EAF83848006802F052FE04462246BB
:102570000B4636A1234801F0FBFE302233212148CF
:1025800002F0DAF83048006802F042FE804600228D
:10259000304B02F055FA04460D460421002000F0AD
:1025A000B9F94FEA4008404602F0A2FB064622462F
:1025B0002B4602F003FC824652460B4623A11148EB
:1025C00001F0D6FE0F4801F0F9FE009802F020FE5F
:1025D000044622460B4620A0FFF7D6FD00BF214847
:1025E00000780028FBD0204800780028F7D11D494A
:1025F000087000BF1D48007801283FF458AFBDE8BF
:10260000F88F000018000020447400084E000020DD
:1026100090000020940000205000002025352E332B
:102620006600000010080140085E00086D4120446B
:10263000430000006D4120524D53000032303020E5
:102640006D410000322041008400002025342E32EC
:10265000662056000000B04025352E3366206D41BF
:10266000000000004D0000204F0000204C00002022
:102670002DE9F84FE5E0764801F0AAFD7549744868
:1026800001F0DEFE7448007810B17448006801E083
:10269000734800680090162200216D4802F04CF843
:1026A0007048007830B101281DD0022834D00328AA
:1026B0006CD14EE0009802F0ABFD044622460B467A
:1026C00069A1634801F054FE4FF0805068490860EA
:1026D00068495F4801F0B4FE2823322266A15C48B5
:1026E00001F09CFE53E0009802F092FD0446224661
:1026F0000B4663A1564801F03BFE4FF080505C4909
:1027000008605C49524801F09BFE282337225EA1F5
:102710004F4801F083FE3AE05C49009802F04CFF1C
:10272000064602F075FD044622460B4658A148486D
:1027300001F01EFE4FF080504D4908604D4944485D
:1027400001F07EFE28231A4653A1414801F066FE9F
:102750001DE04E49009802F02FFF064602F058FD9A
:10276000044622460B464EA1394801F001FE4FF0C7
:1027700080503F4908603F49354801F061FE2823F9
:102780002D2249A1324801F049FE00E000BF00BF00
:102790003148007808B146A000E046A001461F235A
:1027A0003C222B4801F03AFE30220021284801F05B
:1027B000C3FF4148006802F02BFD044622460B4649
:1027C0003EA1234801F0D4FD30223321204801F0FE
:1027D000B3FF3948006802F01BFD80460022394BE8
:1027E00002F02EF904460D460421002000F092F874
:1027F0004FEA4008404602F07BFA064622462B4646
:1028000002F0DCFA824652460B462CA1104801F039
:10281000AFFD0F4801F0D2FD009802F0F9FC04462C
:1028200022460B4628A0FFF7AFFC00BF29480078DE
:102830000028FBD0284800780028F7D125490870E7
:1028400000BF2648007800283FF415AFBDE8F88F98
:1028500018000020447400084E000020880000206A
:102860008C0000205100002025362E32660000002A
:1028700010080140085E00083630205600000000B5
:1028800025352E33660000003620560000007A44BD
:1028900025352E3166000000363030206D560000A0
:1028A00025352E32660000003630206D56000000BF
:1028B00044430000524D53008400002025342E3242
:1028C000662056000000B04025362E336620560A9A
:1028D000000000004D0000204F0000204C000020B0
:1028E00048200B4908800A481438008840F001004D
:1028F00007491439088000200549091F0880044849
:102900002838008840F001000149283908807047C4
:102910002808004030B50246002332B1012A08D011
:10292000022A0AD0032A10D10BE00020174C2060A5
:102930000BE00520154C206007E00620134C2060BA
:1029400003E00720114C206000BF00BF002016E00C
:102950000E4C2C3C246844F001040C4D2C3D2C60A2
:1029600000BF0A4C343C246804F00204022CF8D165
:10297000064C183424681C44A3B2441CE0B28842BC
:10298000E6DB93FBF1F080B230BD0000342801405B
:1029900010B508201A4908602DE01A4801F018FC0B
:1029A0001949184801F04CFD0E231A4617A1154885
:1029B00001F034FD1D23002216A1124801F02EFD66
:1029C0001749104801F03CFD2623162215A10D4899
:1029D00001F024FD2E230A2214A10A4801F01EFD55
:1029E000084801F0EBFC00BF144800780028FBD039
:1029F000002012490870124800780528CDD010BD7B
:102A00001008014018000020F864000853544D33AA
:102A100032000000444D4D2076312E32000000007F
:102A2000085E00086D617274696E4000656D6265D4
:102A300064626C6F672E6575000000004D00002019
:102A40004C0000202DE9FF5FCEE06B4801F0C0FB99
:102A50006A48007810B16A48006801E06948006877
:102A600083466648007810B16748006801E067480F
:102A7000006882466649604801F0E2FC16220021A7
:102A80005D4801F059FE5146584602F095FD064654
:102A900002F0BEFB044622460B465EA1564801F0FA
:102AA00067FC5E49544801F0CBFC1F2200215248CC
:102AB00001F042FE584602F0ABFB044622460B46AC
:102AC00057A14D4801F054FC282200214A4801F04A
:102AD00033FE504602F09CFB044622460B4652A1B0
:102AE000454801F045FC4548007808B150A000E099
:102AF00051A001461F2330223F4801F08FFC50486F
:102B0000007808B14FA000E04FA0014628233022F2
:102B1000394801F083FC4D48007808B14CA000E032
:102B20004CA0014628234022334801F077FC302294
:102B30000021314801F000FE4748006802F068FBC0
:102B4000044622460B4645A12B4801F011FC3022D9
:102B50003321294801F0F0FD3F48006802F058FB9E
:102B6000804600223F4B01F06BFFCDE902010421BA
:102B70000020FFF7CFFE4FEA4008404602F0B8F8C9
:102B80000646DDE9022302F019F9044622460B4607
:102B900032A1194801F0ECFB174801F00FFC514637
:102BA000584602F009FD039002F032FB8046894648
:102BB000504602F02DFB04460D46584602F028FB15
:102BC000064632460B4628A08DE83003FFF7DCFAB4
:102BD00000BF2C4800780028FBD02B480078002844
:102BE000F7D12849087000BF2848007802283FF430
:102BF0002CAFBDE8FF9F0000180000204E00002011
:102C0000880000208C00002090000020940000200C
:102C1000447400082530352E32660000085E000836
:102C200025362E326620560025352E33662041008B
:102C300057204443000000005720524D530000002D
:102C40005100002036302F00362F000050000020A9
:102C50002E35000036306D008400002025342E32E1
:102C6000662056000000B04025362E336620563BC5
:102C70002025352E33206D413B2025352E32662010
:102C8000570000004D0000204F0000204C000020A5
:102C90000748007818B110200649086003E04FF497
:102CA0008010044908600248007803490880704792
:102CB0005000002010080140106C004016480078B9
:102CC00030B101280BD0022810D003281CD114E009
:102CD0004FF00050114908614000086115E04FF4C1
:102CE00000500E490861400408610EE04FF00050AA
:102CF0000A490861C013086107E04FF40050074912
:102D000008614000086100E000BF00BF0248007891
:102D10000349088070470000510000200010014066
:102D20000C6C004010B5002804DB0A07130E054A9E
:102D3000135406E00A07140E034A00F00F031B1F8A
:102D4000D45410BD00E400E018ED00E010B50822F6
:102D50005021164801F06AFA1549144801F070FB39
:102D60000E231A4613A1114801F058FB1D2300221F
:102D700012A10E4801F052FB13490C4801F060FB10
:102D80002623162211A1094801F048FB2E230A220E
:102D900010A1064801F042FB044801F00FFB01F0CE
:102DA000C7F910A0FFF788F910BD00001800002037
:102DB000F864000853544D3332000000444D4D2058
:102DC00076312E3200000000085E00086D617274DA
:102DD000696E4000656D626564626C6F672E657533
:102DE0000000000053544D3332206D756C74696DD2
:102DF0006574657220696E697469616C697A65646D
:102E00000A0000002DE9FC5F08208E4908608E480A
:102E100001F0DEF98D498C4801F012FB08230022F5
:102E20008BA1894801F0FAFA01200A2160230A46A1
:102E3000CDE900100021844801F09CFB14231022EE
:102E400086A1814801F0EAFA1E230E2287A17E485E
:102E500001F0E4FA7C4801F0B1FAEBE000BF8748EA
:102E6000007880F0010086490978042901D1012108
:102E700000E0002108400028F1D180490870814914
:102E800008700221012000F0A1F908206D490860B6
:102E90006D4801F09DF9082300226DA16A4801F0F8
:102EA000BDFA01200A2160230A46CDE90010002165
:102EB000654801F05FFB30220021634801F03CFCD3
:102EC0007148006802F0A4F9044622460B466FA13F
:102ED0005D4801F04DFA302233215B4801F02CFCB3
:102EE0006948006802F094F980460022694B01F0BD
:102EF000A7FD04460D4604210020FFF70BFD4FEA15
:102F00004008404601F0F4FE064622462B4601F0FA
:102F100055FF824652460B465CA14B4801F028FA09
:102F200058480078012804D0022829D0032876D1F7
:102F30004DE014220F21444801F0FEFB56A1424807
:102F400001F0F2F91D2214213F4801F0F5FB55482C
:102F500003785548027855A13B4801F009FA26222A
:102F60000A21394801F0E8FB5348006802F050F9A3
:102F7000044622460B4651A1334801F0F9F955E0C9
:102F800014221146304801F0D7FB50A12E4801F021
:102F9000CBF91D2214212C4801F0CEFB42480378C6
:102FA000404802784BA1284801F0E2F926220A2184
:102FB000254801F0C1FB4048006802F029F90446A9
:102FC00022460B4646A1204801F0D2F92EE01422F9
:102FD0000A211D4801F0B0FB45A11B4801F0A4F9EE
:102FE0001D221421184801F0A7FB2F4803782D4813
:102FF000027842A1144801F0BBF926220A211248A6
:1030000001F09AFB2C48006802F002F904462246BF
:103010000B463DA10C4801F0ABF907E0FFE7142394
:1030200000223DA1084801F0F9F900BF00BF0648A1
:1030300001F0C4F91248007804283FF40FAFBDE84E
:10304000FC9F00001008014018000020085E0008E6
:10305000434F4D502E205445535400005072657319
:10306000732027686F6C642700000000746F207362
:103070007461727420746573740000004F00002046
:103080004C000020060000208400002025342E3251
:10309000662056000000B0405245534953544F52E9
:1030A0000000000005000020040000202564202D01
:1030B0003D3D2D20256400000000002052203D20D1
:1030C00025352E3066204F686D00000044494F447E
:1030D000450000002564202D3E2D202564000000C1
:1030E0005566203D2025352E336620560000000011
:1030F000434150414349544F520000002564202D64
:103100007C207C2D2025640043203D2025362E3256
:1031100066207546000000004E6F7468696E672077
:10312000666F756E640000000B4840680B490843E9
:10313000094948600846006840F080700860084609
:10314000406840F0020048600548006840F0020016
:103150000349086070470000001002400004380076
:10316000002002401348C06940F0C0501149C861B6
:103170001148006840F480700F4908600F480088CB
:10318000C42813D10D48001D00880D4908700B4854
:10319000083000880B49087008480C30008808B1D6
:1031A000012000E000200849087002E0C420034923
:1031B000088070470010024000700040046C00401E
:1031C0004C00002051000020500000202DE9F04F5D
:1031D0008BB005460C46FB48007810B10BB0BDE83B
:1031E000F08FF9A0FEF768FFFD48006820F4E000CA
:1031F000FB4908600846006840F400000860084683
:10320000006820F4E02008600846006840F40020D0
:103210000860081F006820F4E060091F0860084685
:10322000006840F400600860012D04D0022D14D025
:10323000032D36D123E04FF00060EA490860E948E9
:103240000C38006820F44040E6490C390860084614
:10325000006840F44050086023E04FF08060E1498E
:103260000860E0480C38006820F44060DD490C3903
:1032700008600846006840F44070086011E04FF0B4
:103280000070D8490860D7480C38006820F0C000AA
:10329000D4490C3908600846006840F030000860E6
:1032A00000BF00BF012C04D0022C14D0032C36D157
:1032B00023E04FF00060CB490860CA480C38006832
:1032C00020F44040C7490C3908600846006840F4C3
:1032D0004050086023E04FF08060C2490860C14858
:1032E0000C38006820F44060BE490C39086008467C
:1032F000006840F44070086011E04FF00070B94978
:103300000860B8480C38006820F0C000B5490C3996
:1033100008600846006840F03000086000BF00BF49
:10332000322000F013FD012D04D0022D14D0032D06
:1033300036D123E04FF40010AA490860A94810389C
:10334000006820F44000A74910390860084600686A
:1033500040F44010086023E04FF48000A149086069
:10336000A0481038006820F040609E49103908607D
:103370000846006840F04070086011E04FF400001B
:103380009849086097481038006820F040409549F7
:10339000103908600846006840F04050086000BFDF
:1033A00000BF012C04D0022C14D0032C36D123E012
:1033B0004FF400108B4908608A481038006820F4E8
:1033C00040008849103908600846006840F4401001
:1033D000086023E04FF4800082490860814810387B
:1033E000006820F040607F49103908600846006896
:1033F00040F04070086011E04FF400007949086027
:1034000078481038006820F040407649103908604C
:103410000846006840F04050086000BF00BF3220FE
:1034200000F094FC012C04D0022C1BD0032C4BD1B7
:1034300031E06C481038006820F470006949103998
:103440000860C8146749086066480C38006820F4B2
:10345000404064490C3908600846006840F4405018
:10346000086031E05F481038006820F070605D4906
:103470001039086008155B4908605A480C38006824
:1034800020F4406057490C3908600846006840F451
:103490004070086018E053481038006820F0704011
:1034A00050491039086048154E4908604D480C389D
:1034B000006820F0C0004B490C39086008460068DD
:1034C00040F03000086000BF00BF322000F03EFC3A
:1034D000012C04D0022C13D0032C33D121E041481D
:1034E0000C38006820F4E0403E490C39086008467A
:1034F000006840F40040086048063A49086021E04E
:1035000038480C38006820F4E06036490C3908600F
:103510000846006840F40060086008063149086009
:1035200010E030480C38006820F070002D490C394C
:1035300008600846006840F08000086008062949D5
:10354000086000BF00BF4FF47A7000F02FFC042128
:103550002046FFF7DFF906463246214622A0FEF755
:1035600013FEB6F5FA7F00DD00E061E1012D04D025
:10357000022D14D0032D59D146E04FF000601949B7
:10358000086018480C38006820F4404015490C3990
:1035900008600846006840F44050086046E04FF07C
:1035A0008060104908600F480C38006820F44060C3
:1035B0000C490C3908600846006840F44070086007
:1035C00034E0000006000020434F4D504F4E454E62
:1035D00054205445535420535441525445440A00F6
:1035E000040C014010080140566F6C74616765203F
:1035F0006F6E2070696E20545025643A2025346423
:1036000020444143202D3E004FF00070FA490860ED
:10361000F9480C38006820F0C000F7490C39086000
:103620000846006840F03000086000BF00BF012C71
:1036300004D0022C14D0032C36D123E04FF00060CC
:10364000ED490860EC480C38006820F44040EA4935
:103650000C3908600846006840F44050086023E0D8
:103660004FF08060E4490860E3480C38006820F4BB
:103670004060E1490C3908600846006840F4407039
:10368000086011E04FF00070DB490860DA480C3840
:10369000006820F0C000D8490C390860084600686E
:1036A00040F03000086000BF00BF322000F04EFB49
:1036B000012D04D0022D14D0032D36D123E04FF478
:1036C0000010CD490860CC481038006820F4400054
:1036D000C949103908600846006840F44010086085
:1036E00023E04FF48000C4490860C34810380068E4
:1036F00020F04060C049103908600846006840F07A
:103700004070086011E04FF40000BB490860BA48FF
:103710001038006820F04040B7491039086008466A
:10372000006840F04050086000BF00BF012C04D08A
:10373000022C1BD0032C4BD131E0AF48103800686D
:1037400020F47000AC4910390860C814AA49086018
:10375000A9480C38006820F44040A7490C3908609B
:103760000846006840F44050086031E0A248103834
:10377000006820F07060A0491039086008159E4963
:1037800008609D480C38006820F440609A490C3964
:1037900008600846006840F44070086018E09648E9
:1037A0001038006820F070409349103908604815BF
:1037B0009149086090480C38006820F0C0008E499C
:1037C0000C3908600846006840F03000086000BF0F
:1037D00000BFFFF785F800BF01212046FFF79AF8E8
:1037E00040F614218842F7DBFEF706FD09900998A0
:1037F00001F095FA07460022804B01F021F9CDE94E
:10380000040101F037F88146484601F001FD074602
:103810003A460B467AA0FEF7B7FC032082490870AF
:103820008248C0F800908248057082480470FEE12A
:10383000012C04D0022C14D0032C36D123E04FF4F9
:1038400000606D4908606C480C38006820F4404006
:1038500069490C3908600846006840F44050086027
:1038600023E04FF480606449086063480C380068C6
:1038700020F4406060490C3908600846006840F454
:103880004070086011E04FF400705B4908605A48CE
:103890000C38006820F0C00057490C390860084611
:1038A000006840F03000086000BF00BF6248006858
:1038B00001F0AEFC07460022604B01F0C1F8CDE9F3
:1038C000020110212046FFF725F8074601F027FAEC
:1038D000CDE90001DDE9022301F070FACDE9040130
:1038E00000F0C8FF824651465348006801F0EAFFE5
:1038F00007465146524801F05FFE8046394601F0C6
:1039000021FD0890012D04D0022D1BD0032D4BD199
:1039100031E039481038006820F470003649103919
:103920000860C8143449086033480C38006820F433
:10393000404031490C3908600846006840F4405066
:10394000086031E02C481038006820F070602A4987
:103950001039086008152849086027480C380068A5
:1039600020F4406024490C3908600846006840F49F
:103970004070086018E020481038006820F070405F
:103980001D491039086048151B4908601A480C3851
:10399000006820F0C00018490C390860084600682B
:1039A00040F03000086000BF00BF012C04D0022CA2
:1039B00048D0032C1FD164E00F480C38006820F475
:1039C000E0400D490C3908600846006840F40040AA
:1039D00008604806084908608011086006481038E9
:1039E000006820F440000449103908600846006867
:1039F00040F44010086063E010080140004085403A
:103A0000436170616369746F7220776974682061C3
:103A1000206361706163697479206F662025362E9A
:103A200032662075460A00000600002000000020D3
:103A30000400002005000020840000200000B040A9
:103A400000002A449C48006820F4E0609A4908601D
:103A50000846006840F400600860080696490C318A
:103A60000860001108609448001F006820F0406062
:103A70009149091F08600846006840F040700860DE
:103A80001EE08D48006820F070008B4908600846F1
:103A9000006840F080000860080687490C31086023
:103AA000C01008608448001F006820F04040824930
:103AB000091F08600846006840F04050086000BFD9
:103AC00000BF7E48006801F0A3FB074600227C4B44
:103AD00000F0B6FFCDE9020110212846FEF71AFFDB
:103AE000074601F01CF9CDE90001DDE9022301F0F0
:103AF00065F9CDE9040100F0BDFE834659466F48E3
:103B0000006801F0DFFE074659466E4801F054FD9B
:103B10008046394601F016FC0790DDE9071001F0F8
:103B2000A3FB07464FF0804101F00CFC0690504685
:103B300001F06EFB07464FF03332634B01F03CFA65
:103B400001D2012700E00027584601F061FB4FF049
:103B500033325D4BCDE9040101F02EFA01D2012090
:103B600000E000200740002F60D1069801F050FBD4
:103B700007460022554B01F021F9CDE90401DDE9AA
:103B8000071001F09FFE074627F00040804601F035
:103B90003FFBCDE90201DDE9042301F0D3F813D2A4
:103BA000069801F035FB07463A460B4648A0FEF75B
:103BB000EBFA0120514908705149069808605148B4
:103BC00005705148047031E05946504601F0C0FD7F
:103BD00001D2584600E05046059001F019FB074617
:103BE0003A460B4649A0FEF7CFFA02204349087037
:103BF0005946504601F0ACFD01D2584600E050460F
:103C00003F4908605946504601F0A2FD01D22046C6
:103C100000E028463B4908705946504601F098FD9F
:103C200001D2284600E020463749087000BF43A073
:103C3000FEF742FA2048006820F4E0401E49086080
:103C40000846006840F40040086048061A490C31F4
:103C500008601948006820F4E060174908600846C9
:103C6000006840F400600860080613490C310860E1
:103C70001148006820F070000F490860084600688D
:103C800040F08000086008060B490C3108600A48C3
:103C9000001F006820F470000749091F08600846EB
:103CA000006820F0706008600846006820F07040EE
:103CB000086000BFFFF792BA0408014084000020AA
:103CC0000000B04000002A44333303400000D03FDE
:103CD0005265736973746F7220776974682061200C
:103CE000726573697374616E6365206F6620253534
:103CF0002E3066204F686D0A00000000060000208C
:103D000000000020040000200500002044696F64CA
:103D1000652077697468206120666F7277617264CC
:103D200020766F6C746167652064726F70206F66B7
:103D30002025352E336620560A0000005445535482
:103D40002046494E49534845440A000000EB800193
:103D50004FF6FF7202EA410041F61F41124A1180FC
:103D600011491439098841F001010F4A143A1180B0
:103D700000210D4A121F11800B492839098841F092
:103D80000101094A283A118000BF0749091F098823
:103D90008142FADB04492839098821F00101024AED
:103DA000283A118070470000280800404721124A35
:103DB000118011491439098841F001010E4A143A61
:103DC000118000210C4A121F11800B4928390988E3
:103DD00041F00101084A283A118000BF0649091F35
:103DE00009888142FADB04492839098821F0010158
:103DF000014A283A118070472808004010B53D4814
:103E0000406840F400403B4948600846806940F4FF
:103E1000007088613848006820F48860364908607E
:103E20003648006820F004003449086034480068CF
:103E3000344908433249086031480838006840F086
:103E400002002F4908390860081F006840F480709C
:103E5000091F0860081D006840F48070091D086093
:103E60004FF4300026491C3108602748244924318A
:103E70000860091F08601F48406940F001001D49A3
:103E800048612248806840F44050204988600846D4
:103E9000806840F0020088600846806840F48060D6
:103EA00088600846806840F48070886008468068B2
:103EB00040F0800088600846806840F020008860FC
:103EC0000C20C8600E483C300861114848610B2046
:103ED0000221002804DB0A07130E0E4A135406E0E1
:103EE0000A07140E0C4A00F00F031B1FD45400BF26
:103EF00010BD00000010024000080140000C01400D
:103F000010240140D80000032220111000000240BC
:103F10001403002000E400E018ED00E0164880697A
:103F200040F48060144988611448006814490840CE
:103F30001249086013480068134908431149086092
:103F400010480838006840F001000E490839086040
:103F50000846006840F0080008600846006840F025
:103F60000400086000BF07480838006800F004003B
:103F70000428F8D0704700000010024000080140FB
:103F8000FBFFBFBB102801400780FF0010B542486F
:103F9000006820F00400404908600846006840F0CE
:103FA000080008603C480830006840F480703A49D6
:103FB000083108603948006820F04000374908603F
:103FC0000846006840F08000086034480C30006803
:103FD00040F0020031490C3108603048001D006893
:103FE00020F080602D49091D08600846006840F0F7
:103FF0000060086029480C30006840F48040274980
:104000000C3108602548001D006820F080402349DD
:10401000091D08600846006840F0004008601F481D
:104020000C30006840F400401C490C3108601C480A
:1040300000691B4908610846806840F010008860EC
:104040000846406940F488511548416115480068A8
:104050004CF2021108431349086012480C30006802
:104060004CF2021108430F490C3108600721084641
:10407000FEF758FE07211720FEF754FE07212820DF
:10408000FEF750FE0720FEF7A9F81720FEF7A6F866
:104090002820FEF7A3F810BD04080140000C0140E1
:1040A00000000140000401401D48806940F03C00D0
:1040B0001B4988610846806940F0010088614FF023
:1040C0000070184948601848006840F4405016498C
:1040D00008600846006820F480400860081D0068F9
:1040E00040F44030091D08600846006820F4802034
:1040F00008600E48406840F04C700C494860084623
:10410000406820F4800048600748006840F4403070
:10411000054908600846006820F480200860704760
:104120000010024000000140000801400010014062
:1041300010B52148806940F480401F4988611F48BC
:10414000406840F004001D4948601D48006840F088
:1041500030601B4908600846006820F080600860F5
:1041600041F64C5017490880081D008842F24C0166
:1041700008431449091D088025200621002804DB76
:104180000A07130E104A135406E00A07140E0F4ACA
:1041900000F00F031B1FD45400BF2520002809DBAB
:1041A00000F01F02012191404209920002F1E02239
:1041B000C2F8001100BF10BD001002400000014015
:1041C000000C01400838014000E400E018ED00E078
:1041D00010B504464FF4FC710448FCF765F8002064
:1041E000034908700349087010BD00001C0100203D
:1041F00010000020110000202DE9FC4707460D4665
:1042000090461E46DDE90A9AACB209E023B2424666
:1042100021B23846CDE9009A00F0ACF9601C84B2B6
:10422000A819A042F2DCBDE8FC87000070B5064684
:104230000C4615463448006840F0330032490860A7
:104240000846006820F0440008603048806940F467
:1042500080502E4988612C48001F00682C49084373
:104260002949091F0860084600682A49084026496C
:10427000091F086008460068274908432249091FAA
:1042800008602648406840F00100244948602448FE
:10429000008840F02000224908800846808840F0CD
:1042A000040088800846008840F0440008804FF0F1
:1042B000007015490C3108603220FFF747FD4FF4BC
:1042C000007011490C3108604FF4FC711548FBF780
:1042D000EBFF2121304600F063F845F01001304635
:1042E00000F05EF87F2C00DD7F2444F08001304632
:1042F00000F056F82021304600F052F80C213046EC
:1043000000F04EF870BD0000040C014000100240A7
:1043100000303000FFBFBFFF008080000000014080
:10432000003001401C0100203EB505460C4611E05E
:104330000A4800780A4909780A4A1278CDE900212A
:10434000029014F8013B0848027808480178284692
:1043500000F090F820780028EAD13EBD120000203D
:104360001400002013000020110000201000002085
:104370000FB430B587B0044618250CA80090691E0C
:1043800001A8009B0B9AFBF775FF0020009001A984
:104390002046FFF7C9FF07B030BC5DF814FB0000F2
:1043A00070B504460D464FF08070034908602946F9
:1043B000204600F04BF970BD100C01402DE9F04192
:1043C000074600251EE045F040013846FFF7E8FFAC
:1043D0000024532644F080013846FFF7E1FF4FF4F4
:1043E00080700C49086009E0542000FB05400A4A2F
:1043F000115C384600F02AF9601CC4B2B442F3DD07
:10440000681CC5B2062DDEDB40213846FFF7C8FF29
:10441000BDE8F081100C01401C010020F0B50646FB
:104420000F4614461D46044804700448057039467A
:104430003046FFF779FFF0BD10000020110000208A
:1044400041B10A4A12686AB9094A1278921D084BAA
:104450001A7007E0054A126822B1054A1278921FC5
:10446000034B1A70014A1160704700000C000020D5
:10447000110000202DE9FF4F8CB0884691469A46E6
:10448000DDF864B01B9C39480068007AAAEB000094
:1044900000F0FF0A35480068406800EBCA05334861
:1044A000006800680B9028880A90A8780990E8783E
:1044B000089095F90500079095F9060006900020F0
:1044C0000590049003900290012C03DD079803905F
:1044D0000698029000263DE0002736E00498411C33
:1044E000C9B200F00700049130B90A98411C89B2A2
:1044F0000A910B99085C0590059800F08000F0B1D6
:10450000012C0CD106984844304402B2079840442C
:10451000384401B25B460C9800F0AAF80FE0CDE9F0
:10452000004B0298304400FB049002B203983844D8
:1045300000FB048001B223460C98FFF75DFE05984E
:104540004006000E0590781CC7B209988742C5DB6B
:10455000701CC6B208988642BEDB287904490978E7
:1045600008440349087010B0BDE8F08F0C0000202B
:10457000100000202DE9FF4F81B00C4615461E4665
:104580000E9F791B002901DB0A4600E04A42301BDE
:10459000002801DB034600E043429A4201DD01228C
:1045A00000E000229346BBF1000F06D020462C46C7
:1045B000054630463E46074600BFB44206DD20466B
:1045C0003446064628463D46074600BF301B0FFAD4
:1045D00080F8781B002801DB014600E0414209B267
:1045E0000091404608EBD07149100FFA81F9BD42A5
:1045F00002DA4FF0010A01E04FF0FF3A20E0BBF190
:10460000000F06D0224629460F9B019800F030F893
:1046100005E02A4621460F9B019800F029F80098F2
:10462000A9EB00000FFA80F9B9F1000F06DA05EBEB
:104630000A0005B209EB08000FFA80F9601C04B209
:10464000B442DCDD05B0BDE8F08F000070B5054672
:104650000C460648848100BF0448008900F002002F
:104660000028F9D00020FFF7A1FB70BD0030014009
:10467000F0B505461C46002905DB542903DA002A5B
:1046800001DB302A00DBF0BD002905DB542903DA09
:10469000002A01DB302A00DBF5E724B3D61702EB52
:1046A0005676F610C6EBC60606EB460601EB860606
:1046B000204FBE5DD71702EB5777FF10A2EBC70C58
:1046C000012707FA0CF73E43D71702EB5777FF1085
:1046D000C7EBC70707EB470701EB8707DFF854C0B5
:1046E0000CF8076023E0D61702EB5676F610C6EBFF
:1046F000C60606EB460601EB86060E4FBE5DD717D3
:1047000002EB5777FF10A2EBC70C012707FA0CF753
:10471000BE43D71702EB5777FF10C7EBC70707EB6E
:10472000470701EB8707DFF80CC00CF8076000BFF4
:10473000A9E700001C010020024B1970024B1A70FF
:1047400070470000100000201100002010B5044642
:10475000204600F04DF810BD490050EAC12018BFB6
:1047600004204A0D18BF40F0010040F2FF72B2EB86
:10477000515F08BF40F00200012808BF05207047C4
:1047800030380A2801D2012070470020704700000D
:10479000FEF7CAFCFFF788FCFDF7C0FCFFF72EFB15
:1047A000FFF7BCFBFDF7C4FCFEF7DCFCFEF786FA66
:1047B000FEF76EFAFEF7CAFA08200C490860C82016
:1047C000FFF7C4FA4FF08050084908604FF4487072
:1047D000FFF7BCFA082005490860FFF7D7FBFDF793
:1047E000E1FB01E0FDF716FCFCE7000010080140CA
:1047F00070B5054600F0DEFF044620F00040C0F131
:10480000FF40C00F08D025F00040C0F1FF40C00FAE
:1048100004BF0120FBF772FD204670BD10B50029D2
:104820000AD00878002807D005487844FCF738FCFF
:10483000002801D0002010BD0248784410BD0000BF
:104840008A2D0000822D000010B500290AD00878BA
:10485000002807D005487844FCF722FC002801D046
:10486000002010BD0248784410BD00007A2D0000E1
:10487000722D000021F00042A2F16052B2F5801FBB
:1048800001F0004328BFD2F17F6C0BD95FEA001C16
:1048900043EAC20242EB507018BF704728BF20F0B5
:1048A00001007047B2F5801FBCBF184670474FEA41
:1048B000410C1CF5001F02D2084600F044BF70B541
:1048C00000F026FB00000089FFF7F6BF4FF0004024
:1048D000A0F580007047000010B591EA030F48BFB3
:1048E00083F0004300F1B283841A71EB030C05D20C
:1048F000121943EB0C03001B61EB0C01DFF824E100
:104900004FEA1154A4EB135C1EEA430F18BF9EEA52
:10491000445F73D023EA0E03DCF1200E21EA045138
:1049200043F4801332D322FA0CFE10EB0E0023FA6C
:104930000CFE41EB0E01CCF1200E03FA0EFE10EB43
:104940000E0051F10001B1F5801FCCF1200E32D2E2
:1049500001EB045112FA0EF2BDE8104058BF704747
:10496000401C38BF5FEA420218BF7047002814BFDE
:1049700020F0010041F100014FEA410313F5001F4F
:1049800038BF7047A1F1C04100F010BB012A43EBD2
:104990000302ACF1200CDCF11F0E32BF4FF0000E11
:1049A00023FA0CF310EB030041EB0451B4EB115F5D
:1049B000D0D0A1EB045101F5801149085FEA300025
:1049C00001EB04510ED350F1000038BF12FA0EFE75
:1049D00008D1BDE81040C9E7401C38BF5FEA420279
:1049E000CAD1C3E7BDE810404FEA410313F5001FE9
:1049F00038BF7047A1F1C04100F0D8BA9EEA445FC9
:104A000008D011EA5E0FBDE8104004BF01F000417C
:104A100000207047BDE8104070B500F079FA00BF83
:104A200064FBBE3E0000E0FF491058BFC1F14041A9
:104A30005B1058BFC3F140438B42EFF300807047D7
:104A40002DE9C04130B4DFF8A0C23CEA111418BF10
:104A50003CEA131400F0EC8081EA03051CEA11140F
:104A600044EAD57418BF1CEA131500F0C780A4EB04
:104A700005044FF0004545EAC12145EAC32341EA58
:104A8000505143EA525304F17F74994204F50034C3
:104A90004FEAC0204FEAC22208BF904200F09C803B
:104AA0004FEA13650FF24016765D4FEA134506FB99
:104AB00005F7C7F1807706FB07F74FEAD737A7FB63
:104AC00003687642C8F58038A7FB06CE38BFA8F148
:104AD000010807FB08E64FF0000EA6FB028CE6FB80
:104AE00003CEDCF1000CCEF1004E38BFAEF1010E6A
:104AF000A6FB0C584FF000074FF00005E6FB0E87B1
:104B0000A1FB08C6A0FB07CE16EB0E0645F100057B
:104B1000E1FB076515F1E04E7EBFA4F580345FEA46
:104B200046066D4116F1800745F100054FEA17274B
:104B30004FEA066647EA0567A6F1DE46B6F1805FF2
:104B40004FEA15251FD9384624F0010C05EBC47136
:104B5000BCF1FE6F01EB0C1102D8F0BCBDE8008186
:104B600024425CBF01F5801E9EEAC47F02D4F0BCE3
:104B7000BDE80081244238D4F0BCA1F1C041BDE8B9
:104B8000004100F013BA4FEAD22242EA43524FEA00
:104B9000D323A7FB02864FEAD02040EA415007FB0F
:104BA00003661EEA0E0F4FEAD12105FB026658BFCD
:104BB000A6EB0056B6EB00564FEA520E4EEAC37E05
:104BC00018EB0E0E56EB530EBDD518EB02085E41E6
:104BD0007F1C55F10005B6E74FF480154FF0000734
:104BE0004FF000064FF00008ADE7F0BC4FF00000BA
:104BF00001F1C04101F00041BDE8008111EA0C1F44
:104C00000CEA131500D00CE013EA0C1F00F025800D
:104C10004FF00000F0BC81EA030101F00041BDE863
:104C20000081F0BCBDE8004181EA030100F0BEB99B
:104C3000F0BCBDE8004170B500F06AF9097EFC3EA9
:104C400000F007B881EA03014FF0000001F00041D5
:104C5000704781EA030100F0A9B9F0BCBDE800414A
:104C60004FF0000021497047FFFDFBF9F7F5F4F222
:104C7000F0EEEDEBE9E8E6E4E3E1E0DEDDDBDAD8F7
:104C8000D7D5D4D3D1D0CFCDCCCBCAC8C7C6C5C455
:104C9000C2C1C0BFBEBDBCBBBAB9B8B7B6B5B4B36C
:104CA000B2B1B0AFAEADACABAAA9A8A8A7A6A5A457
:104CB000A3A3A2A1A09F9F9E9D9C9C9B9A9999981B
:104CC0009797969595949393929191908F8F8E8EBE
:104CD0008D8C8C8B8B8A898988888787868585844B
:104CE00084838382828181800000FF070000F87F37
:104CF00010F0004248BF4042B0FA80F310FA03F1CE
:104D00000AD0C3F11D0303F580634FEA415002EB63
:104D1000035202EBD12170474FF000007047B0FA08
:104D200080F310FA03F10AD0C3F11D0303F5806389
:104D30004FEA41504FEA035202EBD12170474FF046
:104D40000000704751EA030C17D41CF5801F58BFB0
:104D5000BCF5801F00F10680994218BF704708BF5C
:104D60009042704707D711F5801F58BF13F5801F79
:104D700019D499427047894270471CF5801F08D5A5
:104D8000BCF5801FF7D58B4218BF704708BF824221
:104D900070474FF4001C1CEB410F38BF1CEB430F56
:104DA00001D28B42704770B500F0B2F892244900EE
:104DB0004FF000514FF08053FFF736BEDFF848C187
:104DC00070B51CEA111E1EBF1CEA13159EEA0C0FDB
:104DD00095EA0C0F00F06F8081EA030423EA4C137C
:104DE0004EEAD47E21EA4C1141F4801143F4801341
:104DF000AE44A1FB024CA0FB0365AEF17F7E3619E9
:104E000055EB0C05A1FB034C4CF10003A0FB021C6D
:104E100016EB0C06654153F10003094218BF46F03A
:104E2000010613F4007F0BD14FEA03314FEA05303E
:104E3000340341EA155140EA16506FF003020AE0CC
:104E40004FEAC3214FEAC520F40241EA555140EA36
:104E500056506FF0020202EB2E4201EB025585EA3A
:104E6000CE710AD05FEA440C18BF24F0004450F120
:104E7000000041F1000120EAD47040F2FE7C62455E
:104E800000D270BDA84214BF4FF080444FF04044A0
:104E9000002E08BF0024BEF1806FA8BFA1F1C04161
:104EA000BDE8704080F282804FF0000001F1C04107
:104EB00001F0004170479EEA0C0F0CEA131518BF71
:104EC00095EA0C0F06D04FF0000081EA030E0EF0B9
:104ED000004170BD00F01CF88900013E00F007B8E9
:104EE00000F009B84FEA430C5FEA5C5C08D081EA45
:104EF000030100F05BB84FEA410C5FEA5C5CF6D15D
:104F00004FF00000014970470000FF070000F87FE4
:104F10000EF1020E2EF0030E5EF8046B364205D43D
:104F2000012A43EB030515F5001F12D8012841EBB8
:104F3000010C1CF5001F0CD80ED14FEAD17C15F5E1
:104F4000001F0CEB4C0C0CF1020C08BF4CEBD37C9B
:104F500004E04FF0080C01E04FEAD37C0CEB4C0569
:104F600026FA05F606F00706B6F1040C06D20EEB9B
:104F7000860CBDE870404CF0010C6047DFE80CF097
:104F8000090B02024FF000414FF00000A1F5002193
:104F900070BD19461046012851EB010418BFD4F525
:104FA000001484BF002001F0004170BD0808A0F586
:104FB00000114FEA3101704753EA010C17D41CF578
:104FC000801F58BFBCF5801F00F106808B4218BFC0
:104FD000704708BF8242704707D713F5801F58BF3C
:104FE00011F5801F19D48B4270479B4270471CF506
:104FF000801F08D5BCF5801FF7D5994218BF7047B0
:1050000008BF904270474FF4001C1CEB430F38BFA1
:105010001CEB410F01D2994270470FB40CBC03BC8A
:10502000FFF7C1BE91EA030F10B581F000413FF5D3
:105030005BAC83F0004300F009B8000010B591EAC2
:10504000030F48BF83F000433FF54EAC841A71EB69
:10505000030C07D212198CF0004C43EB0C03001B1D
:1050600061EB0C01DFF8A4E14FEA1154A4EB135CEF
:105070001EEA430F18BF9EEA445F00F0B08023EAA7
:105080006E03524221EA0451C3EB6E0338BF5B1E2C
:10509000DCF1200E25D322FA0CFE10EB0E0043FAB1
:1050A0000CFE41EB0E01CCF1200E03FA0EFE10EBCC
:1050B0000E0051F10001CCF1200E29D412FA0EF2AB
:1050C00001EB0451BDE8104058BF7047401C1CBFA5
:1050D000B2F1004F704700280CBF491C20F00100BE
:1050E000704712EB020E43EB030218BF4FF0010EA4
:1050F0004EEA4202ACF1200CDCF11E0E54D943FA08
:105100000CFE10EB0E0051F1FF31CCF11E0ED5D587
:105110000EF1010E12FA0EFE404141EB010101EBCE
:10512000445C5FEA5C5C10D910EBDE7001EB04516B
:1051300038BFBEF1004FBDE8104018BF70470028CF
:105140000CBF491C20F00100704730D24FEAD42C2C
:1051500011F5001124F400641BD0B1FA81F20B3A6E
:10516000A41AA41ED2F12003914030FA03F319438C
:10517000904001EBCC71002C01EB0451BDE81040D4
:10518000A8BF704701F1C0414FF0000001F000419D
:105190007047B0FA80F310FA03F100D110BDE41AA1
:1051A000173C4805C90AE4E701EB045110BD49105A
:1051B00001EB0451BDE810404FEA300002E04FF02F
:1051C000000170474A0008BF0042F8D0B2F5001F46
:1051D00028BF704701F000414FF0000070479EEA81
:1051E000445F07D011EA5E0FBDE8104004BF002104
:1051F00000207047BDE8104070B5FFF789FE00BF82
:1052000040DFF63E83F00041104670470000E0FFAB
:1052100043004FEAD30C4FEA3C0C43401FBF40070A
:105220000CF1605113F0FE4F70471CF0006F03D17A
:1052300000200CF0004170470CF0004343EA50702E
:1052400010B540EACC0000F038FA00BF0000009230
:105250004FEA0001FFF7AABE4FF000414FF00000F7
:10526000A1F500217047000090EA010F48BF81F0CE
:10527000004100F12E83421A3CBF801A89184FEA80
:10528000D0524FF07F4C1CEA410FA2EBD15318BF14
:105290009CEA026F00F03B804FF0004C4CEA00208B
:1052A0004CEA012121FA03FC10EB0C0C1ED202F196
:1052B000FF325FEA1C2040EBC25038BF70471CF041
:1052C0007F0F4FEA400C18BFBCF17F4F38BF7047CB
:1052D000C3F12003994008BF20F00100BCF17F4FCB
:1052E00038BF7047A0F1C04000F02DBA4FEA3C0033
:1052F000000A40EBC25028BF1CF0FF0F4FEA400CE1
:10530000E6D018BFBCF17F4F38BF7047EAE79CEA90
:10531000026F05D010EA5C0F08BF00F00040704734
:1053200010B500F0CAF900BF64FBBE3E401058BF84
:10533000C0F14040491058BFC1F140418142EFF3F4
:10534000008070474FF47F0C1CEAD0121EBF1CEA8D
:10535000D11392EA0C0F93EA0C0F00F0858090EACB
:10536000010F48BF42F4807240F4000C41F4000089
:105370002CF07F4120F07F4000B58142A2EB030278
:105380000FF2081CACEB504EC0F100009EF800E09C
:105390004FEA4E0E00FB0EFC38BF49004FEA2C1CB2
:1053A00002F5FA020CFB0EF34FEACE1E4FEA112C67
:1053B0004FEAC1210EEB635E42EB22420EFB0CFC76
:1053C0004FEA1C5300FB03114FEA112C4FEA013145
:1053D0000EFB0CFC4FEADC4C00FB0C11C14228BF59
:1053E00009184CEB03335DF804EB10EB410143EB80
:1053F000C250B2F57C0F38BF704729D512F0F00FBC
:105400001CBF00F1C04000F0004070470081828363
:105410008485868788898B8C8D8E8F9192939596C3
:1054200097999A9C9D9FA0A2A3A5A7A8AAACAEB04D
:10543000B2B3B5B7B9BCBEC0C2C5C7C9CCCED1D452
:10544000D7D9DCDFE2E6E9ECF0F3F7FAFE00000082
:105450004FEA400C0CF1807CBCF17E4F28BF7047B6
:10546000B0F1C04000F06FB990EA010F0CEAD1131F
:1054700048BF42F48072624538BF634507D213F4D7
:105480007F0F16D080EA010000F00040704710B591
:1054900000F013F9097EFC3E00F005B880EA010037
:1054A00000F00040704780EA010000F0004000F08A
:1054B0004AB912F47F0F04BF0248704780EA010026
:1054C00000F041B90000C07F4FF07E5209E011F0BA
:1054D000004204D54042C1F1000138BF491E42F0EC
:1054E0007E520B0002F1706212BF20235FEA0001BE
:1054F0007047B1FA81FCA3EB0C0301FA0CF120FA1E
:1055000003FC02EBC352C3F1200341EA0C0110FA81
:1055100003FC5CEA416C42EB112018BF5FF0806C29
:1055200028BF20F001007047B0FA80F310FA03F2B0
:10553000C3F19D030AD0D90501EB1220530638BFF1
:10554000704700F1010008BF20F001007047000023
:1055500050EA010C00F113801CF5000F58BFBCF598
:10556000000F01D48842704707D710F5000F58BFCD
:1055700011F5000F15D488427047894270471CF519
:10558000000F04D5BCF5000FF7D5814270474FF0EE
:10559000807C1CEB400F38BF1CEB410F01D28142D5
:1055A000704710B500F089F8922449004FF0005080
:1055B0004FF08051FFF7BABE4FF47F0C1CEAD012B7
:1055C0001EBF1CEAD11392EA0C0F93EA0C0F00F0F5
:1055D000478090EA010F48BF42F480724FF0004CC0
:1055E0004CEA00204CEA012102EB0302A0FB01136C
:1055F000A2F50002002918BF43F001035B0028BF99
:105600004FEA330342EB22425FEA132C4CEBC250C9
:105610002EBFBCEB436FB2F57C0F70474FEA036CB3
:10562000BCF1004F08BF20F00100B2F57C0F38BF7D
:1056300070470BD582F0FF0212F5803FC8BF70475C
:1056400000F1C040D8BF00F00040704700F5000CEA
:105650005FEA4C0C48BF7047B0F1C04000F073B82F
:1056600090EA010F0CEAD11348BF42F48072624500
:1056700038BF634504D280EA010000F00040704763
:1056800010B500F01AF800BF8900013E00F007B81D
:1056900000F009B85FEA410C5FEA1C6C08D080EAB0
:1056A000010000F050B85FEA400C5FEA1C6CF6D1D4
:1056B0004FF00040A0F5800070470EF1020E2EF072
:1056C000030E5EF8044B244204D44FEA4102B2F1C7
:1056D0007F4F11D84FEA4003B3F17F4F0CD80ED162
:1056E0004FEAD07CB2F17F4F0CEB4C0C0CF1020C6A
:1056F00008BF4CEBD17C04E04FF0080C01E04FEA0E
:10570000D17C0CEB4C0324FA03F404F00704B4F14D
:10571000040C06D20EEB840CBDE810404CF0010CDA
:105720006047DFE80CF0070802024FF00040A0F5E8
:10573000800010BD0846420018BFD2F1807288BFB9
:1057400000F0004010BDFF2141EAD050C005704775
:1057500051EA000C00F113801CF5000F58BFBCF596
:10576000000F01D48142704707D711F5000F58BFD1
:1057700010F5000F15D481427047894270471CF51F
:10578000000F04D5BCF5000FF7D5884270474FF0E5
:10579000807C1CEB410F38BF1CEB400F01D28842CC
:1057A000704780EA010081EA000180EA0100FFF70A
:1057B000F8BE00004FEAD051002988BFD1F1FF02A6
:1057C00040F2758001F17D014FEA002070B5490873
:1057D00040F0004038BF40080EA2430E040CD25CDB
:1057E00002FB02F304FB03F3C3F14043A3FB0254A7
:1057F000ED0D45EA442202FB02F3A0FB03546D4287
:10580000C4F1404438BF641EA2FB05350023E2FB0F
:105810000453EA0B42EA4342A0FB023212F1400475
:10582000A2F12103E40903F07F031F2B32D904EB1B
:10583000C15070BDFEFAF7F3F0ECE9E6E4E1DEDC1E
:10584000D9D7D4D2D0CECCCAC8C6C4C2C1BFBDBCC1
:10585000BAB9B7B6B4B3B2B0AFAEACABAAA9A8A749
:10586000A6A4A3A2A1A09F9E9E9D9C9B9A99989757
:10587000979695949393929190908F8E8E8D8C8C19
:105880008B8A8A89898887878686858484838382B0
:105890008281818004FB04F6B6EB004603D5E64224
:1058A00048BF641CC3E7A64258BF641CBFE711F0A1
:1058B000FF0F02D100F00040704710B5FFF7FDFE6A
:1058C0007FDBFFBE90EA010F48BF81F000413FF54A
:1058D000D2AC421A04D882F00042A0EB020011447C
:1058E0004FEAD0524FF07F4C1CEA410FA2EBD1534C
:1058F00018BF9CEA026F4AD04FF0004C4CEA0020DF
:105900004CEA012121FA03FCB0EB0C0C0FD412F08D
:10591000FE0F36D05FEA4C001DD5001240EBC2509E
:1059200038BF70471CF03F0F18BF70470BE0A2F163
:1059300001025FEA1C2040EBC25038BF70471CF0E8
:105940007F0F18BF7047C3F12003994014BF401E5A
:1059500020F00100704780084FEA122308BF70470B
:10596000B0FA80FCA2EB0C02CCF1280C60FA0CF02F
:1059700093EA122F04BF00EBC25070474FEAC37086
:105980007047130A5FEADC1008BF7047F6E79CEA2D
:10599000026F04D010EA5C0F08BF0020704710B5FA
:1059A000FFF78BFE40DFF63E81F000407047FBF7CB
:1059B00006B9000000FAF031BEAFA98023D8C314A5
:1059C000BE20654AA2A2A55300312419962740A003
:1059D00056A940A55580B8213E4200D0C0C0122231
:1059E00044C0726318A5C04C4444F072422223E0C4
:1059F000724260C5C01194AF8840721C1087C011FC
:105A000010E8C5C0F8442211007252E8C5C07462A3
:105A1000E11180888C7110F0F0C348E11240403CE5
:105A2000856D5AAE909E30C2927A1840F99E99F0D8
:105A30003D08208103C0F46318C7C0F88E88F0F8D1
:105A40008E88803D08234513C08C63F8C620FE2451
:105A500092709CA98A4A20924938870F2D5B326048
:105A6000808E735BCE20388A0C18288E00E999E866
:105A700080388A0C18288E0202E4A5CA4A60721087
:105A8000E18BC0F9084210808C6318C5C085149260
:105A900030C30088A6552AA5311888CD230C31289B
:105AA000C08D250C208200F8C44623E0EAAAC084F9
:105AB000442210D555C04AB0F080E1797088E99948
:105AC000E07888701179997079F8706BA4907CA453
:105AD000C745C093DB68BEC5558088ACCCB0FEFA24
