:020000040800F2
:10000000C00800202902000831020008330200085D
:10001000350200083702000839020008000000001D
:100020000000000000000000000000003B0200088B
:100030003D020008000000003F02000841020008E5
:10004000430200084302000843020008430200087C
:10005000430200084302000843020008430200086C
:10006000430200084302000843020008430200085C
:10007000430200084302000843020008430200084C
:10008000430200084302000843020008430200083C
:10009000430200084302000843020008430200082C
:1000A000430200084302000843020008430200081C
:1000B000430200084302000843020008430200080C
:1000C00043020008430200084302000843020008FC
:1000D00043020008430200084302000843020008EC
:1000E00043020008430200084302000843020008DC
:1000F0004302000843020008000000000000000066
:100100000000000000000000430200084302000855
:100110000000000000000000430200084302000845
:10012000430200084302000843020008430200089B
:10013000430200084302000843020008430200088B
:100140004302000800000000000000000000000062
:10015000000000000000000000000000000000009F
:1001600000000000000000004302000843020008F5
:1001700043020008000000004302000800000000E5
:10018000000000004302000800F002F800F03CF814
:100190000AA090E8000C82448344AAF10107DA45E2
:1001A00001D100F031F8AFF2090EBAE80F0013F0F8
:1001B000010F18BFFB1A43F001031847E0130000BA
:1001C00000140000103A24BF78C878C1FAD852074A
:1001D00024BF30C830C144BF04680C6070470000C1
:1001E0000023002400250026103A28BF78C1FBD840
:1001F000520728BF30C148BF0B6070471FB500F0E1
:100200004FFE1FBD10B510BD00F07AF81146FFF784
:10021000F5FF00F087FD00F098F803B4FFF7F2FF58
:1002200003BC00F09FF800000948804709480047D8
:10023000FEE7FEE7FEE7FEE7FEE7FEE7FEE7FEE796
:10024000FEE7FEE704480549054A064B70470000F3
:100250007503000889010008C0020020C0080020C2
:10026000C0040020C00400204FF000020429C0F0A8
:10027000128010F0030C00F01E80CCF1040CBCF1D5
:10028000020F18BF00F8012BA8BF20F8022BA1EB2A
:100290000C0100F010B85FEAC17C24BF00F8012B0C
:1002A00000F8012B48BF00F8012B704770477047DA
:1002B00070474FF0000200B5134694469646203929
:1002C00022BFA0E80C50A0E80C50B1F12001BFF40F
:1002D000F7AF090728BFA0E80C5048BF0CC05DF875
:1002E00004EB890028BF40F8042B08BF704748BFC3
:1002F00020F8022B11F0804F18BF00F8012B704737
:10030000754600F02BF8AE4605006946534620F0CE
:100310000700854618B020B5FFF794FFBDE82040E0
:100320004FF000064FF000074FF000084FF0000BB1
:1003300021F00701AC46ACE8C009ACE8C009ACE864
:10034000C009ACE8C0098D46704710B50446AFF34C
:1003500000802046BDE81040FFF75FBF00487047AF
:100360005C02002001491820ABBEFEE72600020017
:10037000704700001948006840F470001749086091
:100380001748006840F001001549086008464068B9
:10039000144908401249486008460068124908405C
:1003A0000F4908600846006820F48020086008466D
:1003B000406820F4FE0048600846C06A20F00F0044
:1003C000C8620846006B09490840054908630020D7
:1003D0008860C803014980390860704788ED00E0F3
:1003E000001002400CC07FF8FFFFF6FECCFC00FFBF
:1003F00010B504460248047000F0ECF810BD00008F
:10040000420000200348C06940F004000149C8616F
:100410007047000000100240114909684FF0007257
:1004200042EA004242F4806211430D4A11601146D3
:10043000096841F40051116000210EE000BF084A34
:100440001432126802F00402002AF8D0044A203262
:100450001268044B5A544A1CD1B28142EEDB7047F9
:1004600004540040500200201448006814490978E0
:100470004FF0007242EA0141084310490860084603
:10048000006840F40050086000200EE00D49095C4F
:100490000A4A2432116000BF08491431096801F08A
:1004A00001010029F8D0411CC8B2054909788842E9
:1004B000ECDB002002490870704700000454004043
:1004C000410000204402002001460148405C704782
:1004D0005002002010B504460948007800F072F878
:1004E000204600F00FF8FFF7BFFF0548007800F046
:1004F00069F80120FFF790FF0020FFF7E5FF10BD2E
:100500004200002004490A780978491C024B1970FE
:100510000249885470470000410000204402002036
:1005200070B505460C460848007800F04BF82846A0
:10053000FFF7E8FF2046FFF7E5FFFFF795FF0520EF
:1005400000F0A6F870BD00004200002070B506461D
:100550000D460948007800F035F83046FFF7D2FF25
:10056000002404E0285DFFF7CDFF601CC4B2082C16
:10057000F8DBFFF779FF70BD42000020F1B52DEDEB
:10058000020B82B0074602AD03AE002405E015F869
:10059000010B0DF80400601CC4B2042CF7DB05E06D
:1005A00016F8010B0DF80400601CC4B2082CF7DB30
:1005B00069463846FFF7CAFF0A2000F069F805B01F
:1005C000F0BD00004106090E014A116070470000AD
:1005D000045400401648C06940F400101449C86132
:1005E0001448006840F4202012490860114808307F
:1005F000006840F470200F49083108600D48406AD7
:1006000040F044010B484162001D006840F4407016
:100610000849091D0860084808490860074810385B
:10062000006840F00100054910390860704700007B
:10063000001002400004004809033100105400403B
:100640000F4840680F4908430D4948600846006854
:100650000D4908430A4908600C48006840F0020050
:100660000A49086000BF0648006800F000700028D2
:10067000F9D00348406840F00200014948607047E3
:100680000010024000041D00000001010020024093
:1006900000EB80014FF6FF7202EA410041F61F4174
:1006A000124A116011491439096841F001010F4AD9
:1006B000143A116000210D4A121F11600B492839AC
:1006C000096841F00101094A283A116000BF074951
:1006D000091F09688142FAD304492839096821F0C1
:1006E0000101024A283A11607047000028080040C2
:1006F0004721124A116011491439096841F001017A
:100700000E4A143A116000210C4A121F11600B4965
:100710002839096841F00101084A283A116000BFF0
:100720000649091F09688142FAD304492839096832
:1007300021F00101014A283A116070472808004061
:100740002348406940F4FC00214948614FF0904043
:10075000006840F080704FF0904108600846806863
:1007600040F0407088600846006840F480300860BF
:100770000846806840F4403088601648006840F4BD
:10078000A0401449086013480830006840F47040E5
:100790001049083108601048006840F010000E4908
:1007A00008600D480830006840F030000A49083100
:1007B00008600948006840F4A040074908600648FE
:1007C0000830006840F47040034908310860704701
:1007D00000100240001400480004004810B5044610
:1007E0004FF4FC710448FFF73FFD002003490870F7
:1007F0000349087010BD00004C0000203C000020A0
:100800003D0000202DE9FC4707460D4690461E4658
:10081000DDE90A9AACB209E023B2424621B2384679
:10082000CDE9009A00F09CF9601C84B2A819A0429E
:10083000F2DCBDE8FC87000070B506460C461546A4
:100840003B48006840F41860394908600846006871
:1008500020F4007008604FF09040006820F00040E5
:100860004FF0904108600846006840F08040086002
:100870000846C06820F08040C8602D480C300068F1
:1008800020F480702A490C310860081F006840F489
:100890007C60091F08604FF09040806840F0404045
:1008A0004FF0904188602348806940F4805021498E
:1008B000886121481E49203108602048006840F0C6
:1008C00020001E4908600846406840F00400486067
:1008D0000846006840F044000860C8044FF09041AA
:1008E00088613220FFF7D4FE4FF400404FF0904172
:1008F00088614FF4FC711248FFF7B6FC21213046A5
:1009000000F044F845F01001304600F03FF87F2C2D
:1009100000DD7F2444F08001304600F037F82021CC
:10092000304600F033F80C21304600F02FF870BD4F
:100930000004004800100240005050000030014008
:100940004C0000203EB505460C4611E00A480078F0
:100950000A4909780A4A1278CDE90021029014F870
:10096000013B0848027808480178284600F078F8EA
:1009700020780028EAD13EBD3E0000204000002043
:100980003F0000203D0000203C00002070B50446E0
:100990000D464FF48010034908602946204600F0B8
:1009A0004BF970BD180400482DE9F04107460025B9
:1009B0001DE045F040013846FFF7E8FF00245326CC
:1009C00044F080013846FFF7E1FF10200C49086031
:1009D00009E0542000FB05400A4A115C384600F04B
:1009E0002BF9601CC4B2B442F3DD681CC5B2062DFD
:1009F000DFDB40213846FFF7C9FFBDE8F08100008A
:100A0000180400484C000020F0B506460F46144676
:100A10001D46044804700448057039463046FFF707
:100A200091FFF0BD3C0000203D00002041B10A4A8A
:100A300012686AB9094A1278921D084B1A7007E0C9
:100A4000054A126822B1054A1278921F034B1A70A8
:100A5000014A116070470000380000203D0000206E
:100A60002DE9FF4F8CB0884691469A46DDF864B078
:100A70001B9C39480068007AAAEB000000F0FF0ACE
:100A800035480068406800EBCA05334800680068D4
:100A90000B9028880A90A8780990E878089095F932
:100AA0000500079095F90600069000200590049037
:100AB00003900290012C03DD0798039006980290A2
:100AC00000263DE0002736E00498411CC9B200F042
:100AD0000700049130B90A98411C89B20A910B9918
:100AE000085C0590059800F08000F0B1012C0CD155
:100AF00006984844304402B207984044384401B252
:100B00005B460C9800F0AAF80FE0CDE9004B029884
:100B1000304400FB049002B20398384400FB048088
:100B200001B223460C98FFF76DFE05984006000EB3
:100B30000590781CC7B209988742C5DB701CC6B205
:100B400008988642BEDB287904490978084403499D
:100B5000087010B0BDE8F08F380000203C00002085
:100B60002DE9FF4F81B00C4615461E460E9F791B9E
:100B7000002901DB0A4600E04A42301B002801DB65
:100B8000034600E043429A4201DD012200E00022D8
:100B90009346BBF1000F06D020462C460546304652
:100BA0003E46074600BFB44206DD204634460646B0
:100BB00028463D46074600BF301B0FFA80F8781BD9
:100BC000002801DB014600E0414209B200914046A5
:100BD00008EBD07149100FFA81F9BD4202DA4FF0EB
:100BE000010A01E04FF0FF3A20E0BBF1000F06D010
:100BF000224629460F9B019800F030F805E02A466E
:100C000021460F9B019800F029F80098A9EB0000FD
:100C10000FFA80F9B9F1000F06DA05EB0A0005B208
:100C200009EB08000FFA80F9601C04B2B442DCDD65
:100C300005B0BDE8F08F000070B505460C460648CB
:100C4000047300BF0448806800F002000028F9D057
:100C50000220FFF74DFD70BD00300140F0B50546A4
:100C60001C46002905DB542903DA002A01DB302A5F
:100C700000DBF0BD002905DB542903DA002A01DB83
:100C8000302A00DBF5E724B3D61702EB5676F610D0
:100C9000C6EBC60606EB460601EB8606204FBE5D98
:100CA000D71702EB5777FF10A2EBC70C012707FA03
:100CB0000CF73E43D71702EB5777FF10C7EBC70778
:100CC00007EB470701EB8707DFF854C00CF8076014
:100CD00023E0D61702EB5676F610C6EBC60606EBF7
:100CE000460601EB86060E4FBE5DD71702EB57771F
:100CF000FF10A2EBC70C012707FA0CF7BE43D7176A
:100D000002EB5777FF10C7EBC70707EB470701EB6D
:100D10008707DFF80CC00CF8076000BFA9E70000E8
:100D20004C000020FFF78CFCFFF70AFDC02047496C
:100D30000860FFF767FB082250214548FFF77CFD5C
:100D40004348FFF74BFD43494148FFF76FFE0E2331
:100D5000062241A13E48FFF757FE1D23092240A16C
:100D60003B48FFF751FE3A48FFF71EFE5020FFF7C1
:100D70003FFB002414E03C4901EB840191ED001A93
:100D8000F0EE410A394901EB840191ED001AB0EE11
:100D9000410AE1000831C8B2FFF7F0FB601CC4B2A1
:100DA000042CE8DB002414E0314901EB840191EDCF
:100DB000001AF0EE410A2F4901EB840191ED001A6F
:100DC000B0EE410AE1002831C8B2FFF7D7FB601C42
:100DD000C4B2022CE8DBC0210020FFF7A1FB2648AB
:100DE00001780120FFF79CFB244801780220FFF7DF
:100DF00097FB234801780320FFF792FB21480178F5
:100E00000420FFF78DFB4FF47A70FFF741FC0020C0
:100E1000FFF760FB0546C02D09D11B480B49086050
:100E20002C23102219A10A48FFF7EEFD08E019480B
:100E3000064908602C230B2217A10548FFF7E4FDA3
:100E40000348FFF7B1FD00BFFEE7000018040048AB
:100E50000000002090150008454550524F4D0000FD
:100E60005752495445520000180000200800002045
:100E70003000002028000020010000200200002097
:100E8000030000200400002080004000444F4E4535
:100E900000000000400080004552524F5200000008
:100EA0004FF04070E1EE100A7047000000DB6DB6B5
:100EB0001BE0DEF7B9001B0D84CFF7F9B0D9FFFFB7
:100EC00033190D8004020787F6D361F07C1F05C239
:100ED000697FF1F02030706F8C9989B8FB06600D46
:100EE000E1FE1B3333632E1C3C0FC18C300300F139
:100EF0003F667CC79863FE3EF0FF804DEDB4936D76
:100F00009B404C6663333333266C40255CEA901873
:100F1000181818FFFF181818FDA0FFFC060C306009
:100F20008306083060830E001E1F98CC7E1F0F873B
:100F3000C363B18FC3C01871E6C183060C1831FBBF
:100F4000F03CFEC6C6060E0C183070FEFF1E1F9841
:100F5000CC6030703C0643F19FC7C0070783C36372
:100F600033998DFFFF8180C0607EFD820FDFC183DA
:100F7000070FFBC00E1838707CFEC7C3C3C6FE3C0B
:100F8000FFFF06060C0C1818383070607CFEC6C6D1
:100F90007E7EC6C7C7C7FE7C3CFEC6C7C7FE7E0CAA
:100FA0001C3830F0FC0FC0FC0FDE021CF38F07076B
:100FB00083FFFC07FFE0830F0F1DEE207BF0C318BB
:100FC000C6080187180F03FC70643ACFB99B9939A2
:100FD000939B3DFECCC7023FE0F80E01C07C0D8123
:100FE000B8730C61FE7FCC1B83E030FE7FB8FC7EC3
:100FF00037F3FDC7E1F1FFDFC01F3FD85C0C0603EC
:101000000180E0705FE3E0FE1FF387706E0DC1F8B2
:101010003F06E0DC3BFE7F00FFFFE0E0E0FEFEE09D
:10102000E0E0FFFFFFFFE0E0E0FEFEE0E0E0E0E008
:101030001F1FF60B80C030FC3F03E0D837FC7EE07A
:10104000F83E0F83E0FFFFFF83E0F83E0F83FFFFD2
:10105000FFFFF01C71C71C71C71C7FBCE1F8EE7369
:1010600098EE3F0FE3B8E738EE1B87E1C3870E1C0D
:101070003870E1C3FFF0E03F01FC1FE0FD8FEC6F33
:101080003679B3C71E38F0878030C0F83F0FE3FCD5
:10109000F73CEF1FC3F0FC1F031F0FF983707C07A1
:1010A00080F01E03E0EC19FF0F80FE7FB8FC7E3F4E
:1010B0001BFDF8E070381C001F07FC60CE0EC06CF2
:1010C00006C06C06E0E60E7FC1FC00E007FE7FB8BC
:1010D000DC6E37FBF1DCE673B8FC701E7F6260707B
:1010E0007E1F070343FF3CFFFFC30180C060301831
:1010F0000C06030180C1F07C1F07C1F07C1F07E1D3
:10110000D867F878E07C1D8338631C630EE0D81B39
:1011100001E0380700E1C3B0E19870CE7CE73661AA
:101120009B30CDD87C7C1E3C0F1E0707018300E05E
:10113000EE38C61DC1F01C07C0F83B8631877070C1
:10114000E0EC39C619C3B03E0380600C0180300664
:10115000007FBFC0E0E0E070707038383FFFF0FF04
:10116000CCCCCCCCCCCCFFC0C1810306060C08187B
:10117000302060F73333333333337F18382C6C66C9
:10118000C7FFF0E33CFD1833EFF1FF7AC0C0C0C0E9
:10119000DCFEC6C7C7C7C6FEDC3E7E6060E060629C
:1011A0007F3C060C1837FFF1E3C78F1FF7601C7EEA
:1011B000637FFF60607F1E1CF33F7CC30C30C30C59
:1011C0003F7F66667E38607E7FC3FF3CC183060D2D
:1011D000DFF1E3C78F1E3C60FCFFFFC033303333C9
:1011E000333333FEC0C0C0C0C7CEDCF8F8DCCCCE91
:1011F000C7FFFFFFC0D9EFFEC67C67C67C67C67C11
:1012000067C670DDFF1E3C78F1E3C61E3F98CC7EBA
:101210003B1D8CFE1E00DCFEC6C7C7C7C6FEFCC059
:10122000C0C07FFF1E3C78F1FF760C1830DFF18CD8
:101230006318C03CFD8387C1C1FE7830C33FFDC742
:101240001C71C3CFC78F1E3C78F1FF76E3B198CCF9
:10125000C361B0F0381800C71B3999CCCA66DB1ED1
:10126000F0E3871C18C0E3330D8781C1E1D8CEE3DA
:1012700080E3B198CEC361A07038180C0C06007ED4
:10128000FC30E186183FFE3B98C6319CE318C6311E
:10129000C7FFFFFFFFE78C6318C7398C631BDC00B7
:1012A00000000101050000000100030C0601F4002C
:1012B000060005050701F4000A00090C0A00F40005
:1012C000180009100A00F2002A000C0C0E01F400AC
:1012D0003C000B0C0D01F4004D0002050401F4006C
:1012E0004F0003110501F200560004110500F20041
:1012F0005F0005060801F300630008090A01F60013
:101300006C0002060501FD006E0004020701FA00F0
:101310006F0002030501FD007000070D0900F300D6
:101320007C00090C0A00F4008A00070C0A01F40092
:101330009500080C0A01F400A100090C0A00F40051
:10134000AF00090C0A00F400BD00070C0A01F4000C
:10135000C800080C0A01F400D400080C0A01F400CB
:10136000E000080C0A01F400EC00080C0A01F4008B
:10137000F80002090501F700FB00020C0501F70067
:10138000FE0007080A01F600050107050A01F8003A
:101390000A0106080A02F6001001060C0801F40012
:1013A00019010C0E0F01F4002E010B0C0C00F400BF
:1013B0003F01090C0C01F4004D01090C0C01F40073
:1013C0005B010B0C0D01F4006C01080C0A01F40028
:1013D0007801080C0A01F40084010A0C0D01F400E4
:1013E00093010A0C0D01F400A201030C0601F400A4
:1013F000A701060C0800F400B0010A0C0C01F4006F
:10140000BF01070C0901F400CA010D0C1001F40022
:10141000DE010A0C0D01F400ED010B0C0E01F400CD
:10142000FE01090C0B01F4000C020C0E0E01F4007D
:101430002102090C0B01F4002F02080C0A00F40031
:101440003B02090C0B00F40049020A0C0D01F400E8
:1014500058020B0C0C00F4006902110C1200F4008D
:1014600083020B0C0C00F40094020B0C0C00F40033
:10147000A502090C0B00F400B30204100601F300EE
:10148000BB02070D0900F300C70204100600F300B9
:10149000CF0208060A01F400D50206020901010084
:1014A000D70204020700F400D80207090900F70078
:1014B000E002080D0A01F300ED0208090900F70037
:1014C000F602070D0A01F300020308090A00F700FB
:1014D0000B03060C0700F4001403080C0A00F700C5
:1014E0002003070D0A01F3002C03020D0501F30090
:1014F0003003041005FFF3003803080D0A01F30060
:101500004503020D0501F30049030C090F01F70023
:10151000570307090A01F7005F0309090A00F700EA
:101520006A03080C0A01F7007603070C0A01F700AA
:10153000810305090701F700870307090800F70081
:101540008F03060C0700F400980307090A01F7004F
:10155000A00309090A00F700AB030D090E00F7000C
:10156000BA0309090A00F700C503090C0A00F700CD
:10157000D30307090800F700DB0305100600F3009A
:10158000E50302100501F300E90305100600F3006E
:10159000AC0E0008A0120008207E1400BC15000844
:1015A000000000204C000000C401000808160008DC
:1015B0004C00002074080000E00100080015091329
:1015C00014000000DA59EB3A46CA5539E9DED93C35
:1015D000C493583B9EB8AF3DF9509ABB534BCAC019
:1015E000294A00C19BC5CE387E501A3C85FC2CBCD4
:1015F000E80B3ABF000000000000010100000000FD
:081600000000000000000000E2
:040000050800018965
:00000001FF
